{
  "contracts/Vault.sol": {
    "Vault": {
      "abi": [
        {
          "inputs": [
            {
              "internalType": "uint256",
              "name": "_depositLimit",
              "type": "uint256"
            },
            {
              "internalType": "address",
              "name": "_token",
              "type": "address"
            },
            {
              "internalType": "address",
              "name": "_governance",
              "type": "address"
            },
            {
              "internalType": "address",
              "name": "_batcher",
              "type": "address"
            },
            {
              "internalType": "address",
              "name": "_baseRewardPool",
              "type": "address"
            },
            {
              "internalType": "address",
              "name": "_ust3Pool",
              "type": "address"
            },
            {
              "internalType": "string",
              "name": "_name",
              "type": "string"
            },
            {
              "internalType": "string",
              "name": "_symbol",
              "type": "string"
            },
            {
              "internalType": "uint8",
              "name": "_decimal",
              "type": "uint8"
            }
          ],
          "stateMutability": "nonpayable",
          "type": "constructor"
        },
        {
          "anonymous": false,
          "inputs": [
            {
              "indexed": true,
              "internalType": "address",
              "name": "owner",
              "type": "address"
            },
            {
              "indexed": true,
              "internalType": "address",
              "name": "spender",
              "type": "address"
            },
            {
              "indexed": false,
              "internalType": "uint256",
              "name": "amount",
              "type": "uint256"
            }
          ],
          "name": "Approval",
          "type": "event"
        },
        {
          "anonymous": false,
          "inputs": [
            {
              "indexed": false,
              "internalType": "bool",
              "name": "active",
              "type": "bool"
            }
          ],
          "name": "EmergencyShutdown",
          "type": "event"
        },
        {
          "anonymous": false,
          "inputs": [
            {
              "indexed": true,
              "internalType": "address",
              "name": "from",
              "type": "address"
            },
            {
              "indexed": true,
              "internalType": "address",
              "name": "to",
              "type": "address"
            },
            {
              "indexed": false,
              "internalType": "uint256",
              "name": "amount",
              "type": "uint256"
            }
          ],
          "name": "Transfer",
          "type": "event"
        },
        {
          "anonymous": false,
          "inputs": [
            {
              "indexed": false,
              "internalType": "uint256",
              "name": "depositLimit",
              "type": "uint256"
            }
          ],
          "name": "UpdateDepositLimit",
          "type": "event"
        },
        {
          "anonymous": false,
          "inputs": [
            {
              "indexed": false,
              "internalType": "address",
              "name": "governance",
              "type": "address"
            }
          ],
          "name": "UpdateGovernance",
          "type": "event"
        },
        {
          "anonymous": false,
          "inputs": [
            {
              "indexed": false,
              "internalType": "uint256",
              "name": "managementFee",
              "type": "uint256"
            }
          ],
          "name": "UpdateManagementFee",
          "type": "event"
        },
        {
          "anonymous": false,
          "inputs": [
            {
              "indexed": false,
              "internalType": "uint256",
              "name": "performanceFee",
              "type": "uint256"
            }
          ],
          "name": "UpdatePerformanceFee",
          "type": "event"
        },
        {
          "inputs": [],
          "name": "API_VERSION",
          "outputs": [
            {
              "internalType": "string",
              "name": "",
              "type": "string"
            }
          ],
          "stateMutability": "view",
          "type": "function"
        },
        {
          "inputs": [],
          "name": "DOMAIN_SEPARATOR",
          "outputs": [
            {
              "internalType": "bytes32",
              "name": "",
              "type": "bytes32"
            }
          ],
          "stateMutability": "view",
          "type": "function"
        },
        {
          "inputs": [],
          "name": "MAX_BPS",
          "outputs": [
            {
              "internalType": "uint256",
              "name": "",
              "type": "uint256"
            }
          ],
          "stateMutability": "view",
          "type": "function"
        },
        {
          "inputs": [],
          "name": "PERMIT_TYPEHASH",
          "outputs": [
            {
              "internalType": "bytes32",
              "name": "",
              "type": "bytes32"
            }
          ],
          "stateMutability": "view",
          "type": "function"
        },
        {
          "inputs": [],
          "name": "acceptGovernance",
          "outputs": [],
          "stateMutability": "nonpayable",
          "type": "function"
        },
        {
          "inputs": [
            {
              "internalType": "address",
              "name": "",
              "type": "address"
            },
            {
              "internalType": "address",
              "name": "",
              "type": "address"
            }
          ],
          "name": "allowance",
          "outputs": [
            {
              "internalType": "uint256",
              "name": "",
              "type": "uint256"
            }
          ],
          "stateMutability": "view",
          "type": "function"
        },
        {
          "inputs": [],
          "name": "apiVersion",
          "outputs": [
            {
              "internalType": "string",
              "name": "",
              "type": "string"
            }
          ],
          "stateMutability": "pure",
          "type": "function"
        },
        {
          "inputs": [
            {
              "internalType": "address",
              "name": "spender",
              "type": "address"
            },
            {
              "internalType": "uint256",
              "name": "amount",
              "type": "uint256"
            }
          ],
          "name": "approve",
          "outputs": [
            {
              "internalType": "bool",
              "name": "",
              "type": "bool"
            }
          ],
          "stateMutability": "nonpayable",
          "type": "function"
        },
        {
          "inputs": [
            {
              "internalType": "address",
              "name": "",
              "type": "address"
            }
          ],
          "name": "balanceOf",
          "outputs": [
            {
              "internalType": "uint256",
              "name": "",
              "type": "uint256"
            }
          ],
          "stateMutability": "view",
          "type": "function"
        },
        {
          "inputs": [],
          "name": "baseRewardPool",
          "outputs": [
            {
              "internalType": "contract IConvexRewards",
              "name": "",
              "type": "address"
            }
          ],
          "stateMutability": "view",
          "type": "function"
        },
        {
          "inputs": [],
          "name": "batcher",
          "outputs": [
            {
              "internalType": "address",
              "name": "",
              "type": "address"
            }
          ],
          "stateMutability": "view",
          "type": "function"
        },
        {
          "inputs": [],
          "name": "decimals",
          "outputs": [
            {
              "internalType": "uint8",
              "name": "",
              "type": "uint8"
            }
          ],
          "stateMutability": "view",
          "type": "function"
        },
        {
          "inputs": [
            {
              "internalType": "uint256",
              "name": "_amount",
              "type": "uint256"
            },
            {
              "internalType": "address",
              "name": "recepient",
              "type": "address"
            }
          ],
          "name": "deposit",
          "outputs": [
            {
              "internalType": "uint256",
              "name": "sharesOut",
              "type": "uint256"
            }
          ],
          "stateMutability": "nonpayable",
          "type": "function"
        },
        {
          "inputs": [],
          "name": "depositLimit",
          "outputs": [
            {
              "internalType": "uint256",
              "name": "",
              "type": "uint256"
            }
          ],
          "stateMutability": "view",
          "type": "function"
        },
        {
          "inputs": [],
          "name": "emergencyShutdown",
          "outputs": [
            {
              "internalType": "bool",
              "name": "",
              "type": "bool"
            }
          ],
          "stateMutability": "view",
          "type": "function"
        },
        {
          "inputs": [],
          "name": "governance",
          "outputs": [
            {
              "internalType": "address",
              "name": "",
              "type": "address"
            }
          ],
          "stateMutability": "view",
          "type": "function"
        },
        {
          "inputs": [],
          "name": "managementFee",
          "outputs": [
            {
              "internalType": "uint256",
              "name": "",
              "type": "uint256"
            }
          ],
          "stateMutability": "view",
          "type": "function"
        },
        {
          "inputs": [],
          "name": "maxAvailableShares",
          "outputs": [
            {
              "internalType": "uint256",
              "name": "_maxAvailableShares",
              "type": "uint256"
            }
          ],
          "stateMutability": "view",
          "type": "function"
        },
        {
          "inputs": [],
          "name": "name",
          "outputs": [
            {
              "internalType": "string",
              "name": "",
              "type": "string"
            }
          ],
          "stateMutability": "view",
          "type": "function"
        },
        {
          "inputs": [
            {
              "internalType": "address",
              "name": "",
              "type": "address"
            }
          ],
          "name": "nonces",
          "outputs": [
            {
              "internalType": "uint256",
              "name": "",
              "type": "uint256"
            }
          ],
          "stateMutability": "view",
          "type": "function"
        },
        {
          "inputs": [],
          "name": "pendingGovernance",
          "outputs": [
            {
              "internalType": "address",
              "name": "",
              "type": "address"
            }
          ],
          "stateMutability": "view",
          "type": "function"
        },
        {
          "inputs": [],
          "name": "performanceFee",
          "outputs": [
            {
              "internalType": "uint256",
              "name": "",
              "type": "uint256"
            }
          ],
          "stateMutability": "view",
          "type": "function"
        },
        {
          "inputs": [
            {
              "internalType": "address",
              "name": "owner",
              "type": "address"
            },
            {
              "internalType": "address",
              "name": "spender",
              "type": "address"
            },
            {
              "internalType": "uint256",
              "name": "value",
              "type": "uint256"
            },
            {
              "internalType": "uint256",
              "name": "deadline",
              "type": "uint256"
            },
            {
              "internalType": "uint8",
              "name": "v",
              "type": "uint8"
            },
            {
              "internalType": "bytes32",
              "name": "r",
              "type": "bytes32"
            },
            {
              "internalType": "bytes32",
              "name": "s",
              "type": "bytes32"
            }
          ],
          "name": "permit",
          "outputs": [],
          "stateMutability": "nonpayable",
          "type": "function"
        },
        {
          "inputs": [
            {
              "internalType": "address",
              "name": "_batcher",
              "type": "address"
            }
          ],
          "name": "setBatcher",
          "outputs": [],
          "stateMutability": "nonpayable",
          "type": "function"
        },
        {
          "inputs": [
            {
              "internalType": "uint256",
              "name": "_depositLimit",
              "type": "uint256"
            }
          ],
          "name": "setDepositLimit",
          "outputs": [],
          "stateMutability": "nonpayable",
          "type": "function"
        },
        {
          "inputs": [
            {
              "internalType": "bool",
              "name": "_active",
              "type": "bool"
            }
          ],
          "name": "setEmergencyShutdown",
          "outputs": [],
          "stateMutability": "nonpayable",
          "type": "function"
        },
        {
          "inputs": [
            {
              "internalType": "address",
              "name": "_governance",
              "type": "address"
            }
          ],
          "name": "setGovernance",
          "outputs": [],
          "stateMutability": "nonpayable",
          "type": "function"
        },
        {
          "inputs": [
            {
              "internalType": "uint256",
              "name": "_managementFee",
              "type": "uint256"
            }
          ],
          "name": "setManagementFee",
          "outputs": [],
          "stateMutability": "nonpayable",
          "type": "function"
        },
        {
          "inputs": [
            {
              "internalType": "uint256",
              "name": "_performanceFee",
              "type": "uint256"
            }
          ],
          "name": "setPerformanceFee",
          "outputs": [],
          "stateMutability": "nonpayable",
          "type": "function"
        },
        {
          "inputs": [],
          "name": "symbol",
          "outputs": [
            {
              "internalType": "string",
              "name": "",
              "type": "string"
            }
          ],
          "stateMutability": "view",
          "type": "function"
        },
        {
          "inputs": [],
          "name": "token",
          "outputs": [
            {
              "internalType": "contract ERC20",
              "name": "",
              "type": "address"
            }
          ],
          "stateMutability": "view",
          "type": "function"
        },
        {
          "inputs": [],
          "name": "totalAssets",
          "outputs": [
            {
              "internalType": "uint256",
              "name": "",
              "type": "uint256"
            }
          ],
          "stateMutability": "view",
          "type": "function"
        },
        {
          "inputs": [],
          "name": "totalSupply",
          "outputs": [
            {
              "internalType": "uint256",
              "name": "",
              "type": "uint256"
            }
          ],
          "stateMutability": "view",
          "type": "function"
        },
        {
          "inputs": [
            {
              "internalType": "address",
              "name": "to",
              "type": "address"
            },
            {
              "internalType": "uint256",
              "name": "amount",
              "type": "uint256"
            }
          ],
          "name": "transfer",
          "outputs": [
            {
              "internalType": "bool",
              "name": "",
              "type": "bool"
            }
          ],
          "stateMutability": "nonpayable",
          "type": "function"
        },
        {
          "inputs": [
            {
              "internalType": "address",
              "name": "from",
              "type": "address"
            },
            {
              "internalType": "address",
              "name": "to",
              "type": "address"
            },
            {
              "internalType": "uint256",
              "name": "amount",
              "type": "uint256"
            }
          ],
          "name": "transferFrom",
          "outputs": [
            {
              "internalType": "bool",
              "name": "",
              "type": "bool"
            }
          ],
          "stateMutability": "nonpayable",
          "type": "function"
        },
        {
          "inputs": [],
          "name": "ust3Pool",
          "outputs": [
            {
              "internalType": "contract ICurvePool",
              "name": "",
              "type": "address"
            }
          ],
          "stateMutability": "view",
          "type": "function"
        },
        {
          "inputs": [
            {
              "internalType": "uint256",
              "name": "maxShares",
              "type": "uint256"
            },
            {
              "internalType": "address",
              "name": "recepient",
              "type": "address"
            },
            {
              "internalType": "uint256",
              "name": "maxLoss",
              "type": "uint256"
            }
          ],
          "name": "withdraw",
          "outputs": [
            {
              "internalType": "uint256",
              "name": "",
              "type": "uint256"
            }
          ],
          "stateMutability": "nonpayable",
          "type": "function"
        }
      ],
      "evm": {
        "bytecode": {
          "linkReferences": {},
          "object": "60e0604052600e805460ff191690553480156200001b57600080fd5b506040516200201d3803806200201d8339810160408190526200003e916200053e565b828282826000908051906020019062000059929190620003c8565b5081516200006f906001906020850190620003c8565b507fff0000000000000000000000000000000000000000000000000000000000000060f882901b166080524660a052620000a8620000d2565b60c0525050600160065550620000c38989898989896200016e565b5050505050505050506200071e565b60007f8b73c3c69bb8fe3d512ecc4cf759cc79239f7b179b0ffacaa9a75d522b39400f600060405162000106919062000628565b6040805191829003822060208301939093528101919091527fc89efdaa54c0f20c7adf612882df0950f5a951637e0307cdcb4c672f298b8bc660608201524660808201523060a082015260c00160405160208183030381529060405280519060200120905090565b600b869055600780546001600160a01b03199081166001600160a01b03888116918217909355600e8054610100600160a81b03191661010087861602179055600f80548316858516179055600880548316888516179055600a80549092169286169290921790556000600d819055600c55620001fa9083600019620002f6602090811b62000eed17901c565b6008546040516001600160a01b0390911681527f8d55d160c0009eb3d739442df0a3ca089ed64378bfac017e7ddad463f9815b879060200160405180910390a17f0810a1c261ca2c0cd86a0152c51c43ba9dc329639d2349f98140891b2ea798eb600d546040516200026e91815260200190565b60405180910390a17f7a7883b0074f96e2c7fab65eb25abf624c488761a5db889e3bb84855dcc6daaf600c54604051620002aa91815260200190565b60405180910390a17fae565aab888bca5e19e25a13db7b0c9144305bf55cb0f3f4d724f730e5acdd62600b54604051620002e691815260200190565b60405180910390a1505050505050565b600060405163095ea7b360e01b81526001600160a01b03841660048201528260248201526000806044836000895af19150620003349050816200037c565b620003765760405162461bcd60e51b815260206004820152600e60248201526d1054141493d59157d1905253115160921b604482015260640160405180910390fd5b50505050565b60003d826200038f57806000803e806000fd5b8060208114620003aa578015620003bc5760009250620003c1565b816000803e60005115159250620003c1565b600192505b5050919050565b828054620003d690620006cb565b90600052602060002090601f016020900481019282620003fa576000855562000445565b82601f106200041557805160ff191683800117855562000445565b8280016001018555821562000445579182015b828111156200044557825182559160200191906001019062000428565b506200045392915062000457565b5090565b5b8082111562000453576000815560010162000458565b80516001600160a01b03811681146200048657600080fd5b919050565b600082601f8301126200049c578081fd5b81516001600160401b0380821115620004b957620004b962000708565b604051601f8301601f19908116603f01168101908282118183101715620004e457620004e462000708565b8160405283815260209250868385880101111562000500578485fd5b8491505b8382101562000523578582018301518183018401529082019062000504565b838211156200053457848385830101525b9695505050505050565b60008060008060008060008060006101208a8c0312156200055d578485fd5b895198506200056f60208b016200046e565b97506200057f60408b016200046e565b96506200058f60608b016200046e565b95506200059f60808b016200046e565b9450620005af60a08b016200046e565b60c08b01519094506001600160401b0380821115620005cc578485fd5b620005da8d838e016200048b565b945060e08c0151915080821115620005f0578384fd5b50620005ff8c828d016200048b565b9250506101008a015160ff8116811462000617578182fd5b809150509295985092959850929598565b600080835482600182811c9150808316806200064557607f831692505b60208084108214156200066657634e487b7160e01b87526022600452602487fd5b8180156200067d57600181146200068f57620006bd565b60ff19861689528489019650620006bd565b60008a815260209020885b86811015620006b55781548b8201529085019083016200069a565b505084890196505b509498975050505050505050565b600181811c90821680620006e057607f821691505b602082108114156200070257634e487b7160e01b600052602260045260246000fd5b50919050565b634e487b7160e01b600052604160045260246000fd5b60805160f81c60a05160c0516118cc6200075160003960006109a5015260006109700152600061031b01526118cc6000f3fe608060405234801561001057600080fd5b50600436106101f75760003560e01c806370897b2311610120578063ab033ea9116100b8578063ecf708581161007c578063ecf70858146104c5578063f39c38a0146104ce578063fc0c546a146104e1578063fd967f47146104f4578063fe56e232146104fd57600080fd5b8063ab033ea91461044e578063bdc8144b14610461578063d505accf14610474578063dd62ed3e14610487578063e63697c8146104b257600080fd5b806370897b23146103a257806370a08231146103b557806375de2902146103d557806377e3b267146103dd5780637ecebe0014610401578063877887821461042157806395d89b411461042a578063a6f7f5d614610432578063a9059cbb1461043b57600080fd5b806323b872dd1161019357806323b872dd146102bb57806325829410146102ce57806330adf81f146102ef578063313ce567146103165780633403c2fc1461034f5780633644e5151461035c578063475a91d1146103645780635aa6e6751461037c5780636e553f651461038f57600080fd5b806301e1d114146101fc578063025a3a2914610217578063058a8e5f1461023757806306fdde031461024c578063095ea7b31461026157806314c644021461028457806318160ddd146102975780631f1fa133146102a0578063238efcbc146102b3575b600080fd5b610204610510565b6040519081526020015b60405180910390f35b600a5461022a906001600160a01b031681565b60405161020e91906116e5565b61024a61024536600461147b565b6106bc565b005b6102546106e6565b60405161020e91906116f9565b61027461026f366004611573565b610774565b604051901515815260200161020e565b61024a61029236600461159c565b6107e1565b61020460025481565b600f5461022a906001600160a01b031681565b61024a610837565b6102746102c93660046114c7565b61088c565b6040805180820190915260058152640312e302e360dc1b6020820152610254565b6102047f6e71edae12b1b97f4d1f60370fef10105fa2faae0126114a169c64845d6126c981565b61033d7f000000000000000000000000000000000000000000000000000000000000000081565b60405160ff909116815260200161020e565b600e546102749060ff1681565b61020461096c565b600e5461022a9061010090046001600160a01b031681565b60085461022a906001600160a01b031681565b61020461039d366004611604565b6109c7565b61024a6103b03660046115d4565b610abd565b6102046103c336600461147b565b60036020526000908152604090205481565b610204610b26565b610254604051806040016040528060058152602001640312e302e360dc1b81525081565b61020461040f36600461147b565b60056020526000908152604090205481565b610204600d5481565b610254610b38565b610204600c5481565b610274610449366004611573565b610b45565b61024a61045c36600461147b565b610bab565b61024a61046f3660046115d4565b610bd5565b61024a610482366004611502565b610c12565b610204610495366004611495565b600460209081526000928352604080842090915290825290205481565b6102046104c0366004611626565b610e5d565b610204600b5481565b60095461022a906001600160a01b031681565b60075461022a906001600160a01b031681565b61020461271081565b61024a61050b3660046115d4565b610e8e565b600080600f60009054906101000a90046001600160a01b03166001600160a01b031663bb7b8b806040518163ffffffff1660e01b815260040160206040518083038186803b15801561056157600080fd5b505afa158015610575573d6000803e3d6000fd5b505050506040513d601f19601f8201168201806040525081019061059991906115ec565b600e546040516370a0823160e01b815291925082916101009091046001600160a01b0316906370a08231906105d29030906004016116e5565b60206040518083038186803b1580156105ea57600080fd5b505afa1580156105fe573d6000803e3d6000fd5b505050506040513d601f19601f8201168201806040525081019061062291906115ec565b61062c91906117e1565b6007546040516370a0823160e01b81526001600160a01b03909116906370a082319061065c9030906004016116e5565b60206040518083038186803b15801561067457600080fd5b505afa158015610688573d6000803e3d6000fd5b505050506040513d601f19601f820116820180604052508101906106ac91906115ec565b6106b691906117a9565b91505090565b6106c4610f6b565b600a80546001600160a01b0319166001600160a01b0392909216919091179055565b600080546106f390611817565b80601f016020809104026020016040519081016040528092919081815260200182805461071f90611817565b801561076c5780601f106107415761010080835404028352916020019161076c565b820191906000526020600020905b81548152906001019060200180831161074f57829003601f168201915b505050505081565b3360008181526004602090815260408083206001600160a01b038716808552925280832085905551919290917f8c5be1e5ebec7d5bd14f71427d1e84f3dd0314c0f7b2291e5b200ac8c7c3b925906107cf9086815260200190565b60405180910390a35060015b92915050565b80156107ef576107ef610f6b565b600e805460ff19168215159081179091556040519081527fba40372a3a724dca3c57156128ef1e896724b65b37a17f190b1ad5de68f3a4f3906020015b60405180910390a150565b61083f610fbe565b600880546001600160a01b031916339081179091556040517f8d55d160c0009eb3d739442df0a3ca089ed64378bfac017e7ddad463f9815b8791610882916116e5565b60405180910390a1565b6001600160a01b038316600090815260046020908152604080832033845290915281205460001981146108e8576108c38382611800565b6001600160a01b03861660009081526004602090815260408083203384529091529020555b6001600160a01b03851660009081526003602052604081208054859290610910908490611800565b90915550506001600160a01b0380851660008181526003602052604090819020805487019055519091871690600080516020611877833981519152906109599087815260200190565b60405180910390a3506001949350505050565b60007f000000000000000000000000000000000000000000000000000000000000000046146109a25761099d611018565b905090565b507f000000000000000000000000000000000000000000000000000000000000000090565b6000600260065414156109f55760405162461bcd60e51b81526004016109ec90611772565b60405180910390fd5b6002600655610a026110b2565b610a2f836040518060400160405280600b81526020016a1e995c9bc8185b5bdd5b9d60aa1b815250611100565b600b5483610a3b610510565b610a4591906117a9565b1115610a845760405162461bcd60e51b815260206004820152600e60248201526d195e18d95cdcc819195c1bdcda5d60921b60448201526064016109ec565b610a8e8284611124565b600754909150610aa9906001600160a01b0316333086611162565b610ab2836111f6565b600160065592915050565b610ac5610f6b565b610ad260026127106117c1565b811115610af15760405162461bcd60e51b81526004016109ec9061174c565b600d8190556040518181527f0810a1c261ca2c0cd86a0152c51c43ba9dc329639d2349f98140891b2ea798eb9060200161082c565b600061099d610b33610510565b611384565b600180546106f390611817565b33600090815260036020526040812080548391908390610b66908490611800565b90915550506001600160a01b03831660008181526003602052604090819020805485019055513390600080516020611877833981519152906107cf9086815260200190565b610bb3610f6b565b600980546001600160a01b0319166001600160a01b0392909216919091179055565b610bdd610f6b565b600b8190556040518181527fae565aab888bca5e19e25a13db7b0c9144305bf55cb0f3f4d724f730e5acdd629060200161082c565b42841015610c5c5760405162461bcd60e51b815260206004820152601760248201527614115493525517d11150511312539157d1561412549151604a1b60448201526064016109ec565b6000610c6661096c565b6001600160a01b0389811660008181526005602090815260409182902080546001810190915582517f6e71edae12b1b97f4d1f60370fef10105fa2faae0126114a169c64845d6126c98184015280840194909452938c166060840152608083018b905260a083019390935260c08083018a90528151808403909101815260e08301909152805192019190912061190160f01b6101008301526101028201929092526101228101919091526101420160408051601f198184030181528282528051602091820120600080855291840180845281905260ff88169284019290925260608301869052608083018590529092509060019060a0016020604051602081039080840390855afa158015610d7f573d6000803e3d6000fd5b5050604051601f1901519150506001600160a01b03811615801590610db55750886001600160a01b0316816001600160a01b0316145b610df25760405162461bcd60e51b815260206004820152600e60248201526d24a72b20a624a22fa9a4a3a722a960911b60448201526064016109ec565b6001600160a01b0390811660009081526004602090815260408083208b8516808552908352928190208a905551898152919350918a16917f8c5be1e5ebec7d5bd14f71427d1e84f3dd0314c0f7b2291e5b200ac8c7c3b925910160405180910390a350505050505050565b600060026006541415610e825760405162461bcd60e51b81526004016109ec90611772565b60016006559392505050565b610e96610f6b565b612710811115610eb85760405162461bcd60e51b81526004016109ec9061174c565b600c8190556040518181527f7a7883b0074f96e2c7fab65eb25abf624c488761a5db889e3bb84855dcc6daaf9060200161082c565b600060405163095ea7b360e01b81526001600160a01b03841660048201528260248201526000806044836000895af1915050610f28816113bf565b610f655760405162461bcd60e51b815260206004820152600e60248201526d1054141493d59157d1905253115160921b60448201526064016109ec565b50505050565b6008546001600160a01b03163314610fbc5760405162461bcd60e51b8152602060048201526014602482015273616363657373203a3a20476f7665726e616e636560601b60448201526064016109ec565b565b6009546001600160a01b03163314610fbc5760405162461bcd60e51b815260206004820152601b60248201527f616363657373203a3a2070656e64696e67476f7665726e616e6365000000000060448201526064016109ec565b60007f8b73c3c69bb8fe3d512ecc4cf759cc79239f7b179b0ffacaa9a75d522b39400f600060405161104a919061164a565b6040805191829003822060208301939093528101919091527fc89efdaa54c0f20c7adf612882df0950f5a951637e0307cdcb4c672f298b8bc660608201524660808201523060a082015260c00160405160208183030381529060405280519060200120905090565b600a546001600160a01b03163314610fbc5760405162461bcd60e51b815260206004820152601160248201527030b1b1b2b9b9901d1d102130ba31b432b960791b60448201526064016109ec565b808261111f5760405162461bcd60e51b81526004016109ec91906116f9565b505050565b6002546000901561115557611137610510565b60025461114491906117c1565b61114e90836117e1565b9050611158565b50805b6107db8382611406565b60006040516323b872dd60e01b81526001600160a01b03851660048201526001600160a01b038416602482015282604482015260008060648360008a5af19150506111ac816113bf565b6111ef5760405162461bcd60e51b81526020600482015260146024820152731514905394d1915497d19493d357d1905253115160621b60448201526064016109ec565b5050505050565b6007546040516370a0823160e01b815282916001600160a01b0316906370a08231906112269030906004016116e5565b60206040518083038186803b15801561123e57600080fd5b505afa158015611252573d6000803e3d6000fd5b505050506040513d601f19601f8201168201806040525081019061127691906115ec565b10156112bb5760405162461bcd60e51b8152602060048201526014602482015273696e73756666696369656e742062616c616e636560601b60448201526064016109ec565b600e5460405163534a7e1d60e11b8152600481018390526101009091046001600160a01b03169063a694fc3a90602401602060405180830381600087803b15801561130557600080fd5b505af1158015611319573d6000803e3d6000fd5b505050506040513d601f19601f8201168201806040525081019061133d91906115b8565b6113815760405162461bcd60e51b815260206004820152601560248201527418dbdb9d995e081cdd185ada5b99c819985a5b1959605a1b60448201526064016109ec565b50565b60008061138f610510565b90508061139f5750600092915050565b80600254846113ae91906117e1565b6113b891906117c1565b9392505050565b60003d826113d157806000803e806000fd5b80602081146113e95780156113fa57600092506113ff565b816000803e600051151592506113ff565b600192505b5050919050565b806002600082825461141891906117a9565b90915550506001600160a01b038216600081815260036020908152604080832080548601905551848152600080516020611877833981519152910160405180910390a35050565b80356001600160a01b038116811461147657600080fd5b919050565b60006020828403121561148c578081fd5b6113b88261145f565b600080604083850312156114a7578081fd5b6114b08361145f565b91506114be6020840161145f565b90509250929050565b6000806000606084860312156114db578081fd5b6114e48461145f565b92506114f26020850161145f565b9150604084013590509250925092565b600080600080600080600060e0888a03121561151c578283fd5b6115258861145f565b96506115336020890161145f565b95506040880135945060608801359350608088013560ff81168114611556578384fd5b9699959850939692959460a0840135945060c09093013592915050565b60008060408385031215611585578182fd5b61158e8361145f565b946020939093013593505050565b6000602082840312156115ad578081fd5b81356113b881611868565b6000602082840312156115c9578081fd5b81516113b881611868565b6000602082840312156115e5578081fd5b5035919050565b6000602082840312156115fd578081fd5b5051919050565b60008060408385031215611616578182fd5b823591506114be6020840161145f565b60008060006060848603121561163a578283fd5b833592506114f26020850161145f565b600080835482600182811c91508083168061166657607f831692505b602080841082141561168657634e487b7160e01b87526022600452602487fd5b81801561169a57600181146116ab576116d7565b60ff198616895284890196506116d7565b60008a815260209020885b868110156116cf5781548b8201529085019083016116b6565b505084890196505b509498975050505050505050565b6001600160a01b0391909116815260200190565b6000602080835283518082850152825b8181101561172557858101830151858201604001528201611709565b818111156117365783604083870101525b50601f01601f1916929092016040019392505050565b6020808252600c908201526b0cccaca40e8dede40d0d2ced60a31b604082015260600190565b6020808252601f908201527f5265656e7472616e637947756172643a207265656e7472616e742063616c6c00604082015260600190565b600082198211156117bc576117bc611852565b500190565b6000826117dc57634e487b7160e01b81526012600452602481fd5b500490565b60008160001904831182151516156117fb576117fb611852565b500290565b60008282101561181257611812611852565b500390565b600181811c9082168061182b57607f821691505b6020821081141561184c57634e487b7160e01b600052602260045260246000fd5b50919050565b634e487b7160e01b600052601160045260246000fd5b801515811461138157600080fdfeddf252ad1be2c89b69c2b068fc378daa952ba7f163c4a11628f55a4df523b3efa2646970667358221220aafca831a43faa3f75d6850950c67f2b79a70564c25ae6452a603d82e41ddcd064736f6c63430008040033",
          "opcodes": "PUSH1 0xE0 PUSH1 0x40 MSTORE PUSH1 0xE DUP1 SLOAD PUSH1 0xFF NOT AND SWAP1 SSTORE CALLVALUE DUP1 ISZERO PUSH3 0x1B JUMPI PUSH1 0x0 DUP1 REVERT JUMPDEST POP PUSH1 0x40 MLOAD PUSH3 0x201D CODESIZE SUB DUP1 PUSH3 0x201D DUP4 CODECOPY DUP2 ADD PUSH1 0x40 DUP2 SWAP1 MSTORE PUSH3 0x3E SWAP2 PUSH3 0x53E JUMP JUMPDEST DUP3 DUP3 DUP3 DUP3 PUSH1 0x0 SWAP1 DUP1 MLOAD SWAP1 PUSH1 0x20 ADD SWAP1 PUSH3 0x59 SWAP3 SWAP2 SWAP1 PUSH3 0x3C8 JUMP JUMPDEST POP DUP2 MLOAD PUSH3 0x6F SWAP1 PUSH1 0x1 SWAP1 PUSH1 0x20 DUP6 ADD SWAP1 PUSH3 0x3C8 JUMP JUMPDEST POP PUSH32 0xFF00000000000000000000000000000000000000000000000000000000000000 PUSH1 0xF8 DUP3 SWAP1 SHL AND PUSH1 0x80 MSTORE CHAINID PUSH1 0xA0 MSTORE PUSH3 0xA8 PUSH3 0xD2 JUMP JUMPDEST PUSH1 0xC0 MSTORE POP POP PUSH1 0x1 PUSH1 0x6 SSTORE POP PUSH3 0xC3 DUP10 DUP10 DUP10 DUP10 DUP10 DUP10 PUSH3 0x16E JUMP JUMPDEST POP POP POP POP POP POP POP POP POP PUSH3 0x71E JUMP JUMPDEST PUSH1 0x0 PUSH32 0x8B73C3C69BB8FE3D512ECC4CF759CC79239F7B179B0FFACAA9A75D522B39400F PUSH1 0x0 PUSH1 0x40 MLOAD PUSH3 0x106 SWAP2 SWAP1 PUSH3 0x628 JUMP JUMPDEST PUSH1 0x40 DUP1 MLOAD SWAP2 DUP3 SWAP1 SUB DUP3 KECCAK256 PUSH1 0x20 DUP4 ADD SWAP4 SWAP1 SWAP4 MSTORE DUP2 ADD SWAP2 SWAP1 SWAP2 MSTORE PUSH32 0xC89EFDAA54C0F20C7ADF612882DF0950F5A951637E0307CDCB4C672F298B8BC6 PUSH1 0x60 DUP3 ADD MSTORE CHAINID PUSH1 0x80 DUP3 ADD MSTORE ADDRESS PUSH1 0xA0 DUP3 ADD MSTORE PUSH1 0xC0 ADD PUSH1 0x40 MLOAD PUSH1 0x20 DUP2 DUP4 SUB SUB DUP2 MSTORE SWAP1 PUSH1 0x40 MSTORE DUP1 MLOAD SWAP1 PUSH1 0x20 ADD KECCAK256 SWAP1 POP SWAP1 JUMP JUMPDEST PUSH1 0xB DUP7 SWAP1 SSTORE PUSH1 0x7 DUP1 SLOAD PUSH1 0x1 PUSH1 0x1 PUSH1 0xA0 SHL SUB NOT SWAP1 DUP2 AND PUSH1 0x1 PUSH1 0x1 PUSH1 0xA0 SHL SUB DUP9 DUP2 AND SWAP2 DUP3 OR SWAP1 SWAP4 SSTORE PUSH1 0xE DUP1 SLOAD PUSH2 0x100 PUSH1 0x1 PUSH1 0xA8 SHL SUB NOT AND PUSH2 0x100 DUP8 DUP7 AND MUL OR SWAP1 SSTORE PUSH1 0xF DUP1 SLOAD DUP4 AND DUP6 DUP6 AND OR SWAP1 SSTORE PUSH1 0x8 DUP1 SLOAD DUP4 AND DUP9 DUP6 AND OR SWAP1 SSTORE PUSH1 0xA DUP1 SLOAD SWAP1 SWAP3 AND SWAP3 DUP7 AND SWAP3 SWAP1 SWAP3 OR SWAP1 SSTORE PUSH1 0x0 PUSH1 0xD DUP2 SWAP1 SSTORE PUSH1 0xC SSTORE PUSH3 0x1FA SWAP1 DUP4 PUSH1 0x0 NOT PUSH3 0x2F6 PUSH1 0x20 SWAP1 DUP2 SHL PUSH3 0xEED OR SWAP1 SHR JUMP JUMPDEST PUSH1 0x8 SLOAD PUSH1 0x40 MLOAD PUSH1 0x1 PUSH1 0x1 PUSH1 0xA0 SHL SUB SWAP1 SWAP2 AND DUP2 MSTORE PUSH32 0x8D55D160C0009EB3D739442DF0A3CA089ED64378BFAC017E7DDAD463F9815B87 SWAP1 PUSH1 0x20 ADD PUSH1 0x40 MLOAD DUP1 SWAP2 SUB SWAP1 LOG1 PUSH32 0x810A1C261CA2C0CD86A0152C51C43BA9DC329639D2349F98140891B2EA798EB PUSH1 0xD SLOAD PUSH1 0x40 MLOAD PUSH3 0x26E SWAP2 DUP2 MSTORE PUSH1 0x20 ADD SWAP1 JUMP JUMPDEST PUSH1 0x40 MLOAD DUP1 SWAP2 SUB SWAP1 LOG1 PUSH32 0x7A7883B0074F96E2C7FAB65EB25ABF624C488761A5DB889E3BB84855DCC6DAAF PUSH1 0xC SLOAD PUSH1 0x40 MLOAD PUSH3 0x2AA SWAP2 DUP2 MSTORE PUSH1 0x20 ADD SWAP1 JUMP JUMPDEST PUSH1 0x40 MLOAD DUP1 SWAP2 SUB SWAP1 LOG1 PUSH32 0xAE565AAB888BCA5E19E25A13DB7B0C9144305BF55CB0F3F4D724F730E5ACDD62 PUSH1 0xB SLOAD PUSH1 0x40 MLOAD PUSH3 0x2E6 SWAP2 DUP2 MSTORE PUSH1 0x20 ADD SWAP1 JUMP JUMPDEST PUSH1 0x40 MLOAD DUP1 SWAP2 SUB SWAP1 LOG1 POP POP POP POP POP POP JUMP JUMPDEST PUSH1 0x0 PUSH1 0x40 MLOAD PUSH4 0x95EA7B3 PUSH1 0xE0 SHL DUP2 MSTORE PUSH1 0x1 PUSH1 0x1 PUSH1 0xA0 SHL SUB DUP5 AND PUSH1 0x4 DUP3 ADD MSTORE DUP3 PUSH1 0x24 DUP3 ADD MSTORE PUSH1 0x0 DUP1 PUSH1 0x44 DUP4 PUSH1 0x0 DUP10 GAS CALL SWAP2 POP PUSH3 0x334 SWAP1 POP DUP2 PUSH3 0x37C JUMP JUMPDEST PUSH3 0x376 JUMPI PUSH1 0x40 MLOAD PUSH3 0x461BCD PUSH1 0xE5 SHL DUP2 MSTORE PUSH1 0x20 PUSH1 0x4 DUP3 ADD MSTORE PUSH1 0xE PUSH1 0x24 DUP3 ADD MSTORE PUSH14 0x1054141493D59157D19052531151 PUSH1 0x92 SHL PUSH1 0x44 DUP3 ADD MSTORE PUSH1 0x64 ADD PUSH1 0x40 MLOAD DUP1 SWAP2 SUB SWAP1 REVERT JUMPDEST POP POP POP POP JUMP JUMPDEST PUSH1 0x0 RETURNDATASIZE DUP3 PUSH3 0x38F JUMPI DUP1 PUSH1 0x0 DUP1 RETURNDATACOPY DUP1 PUSH1 0x0 REVERT JUMPDEST DUP1 PUSH1 0x20 DUP2 EQ PUSH3 0x3AA JUMPI DUP1 ISZERO PUSH3 0x3BC JUMPI PUSH1 0x0 SWAP3 POP PUSH3 0x3C1 JUMP JUMPDEST DUP2 PUSH1 0x0 DUP1 RETURNDATACOPY PUSH1 0x0 MLOAD ISZERO ISZERO SWAP3 POP PUSH3 0x3C1 JUMP JUMPDEST PUSH1 0x1 SWAP3 POP JUMPDEST POP POP SWAP2 SWAP1 POP JUMP JUMPDEST DUP3 DUP1 SLOAD PUSH3 0x3D6 SWAP1 PUSH3 0x6CB JUMP JUMPDEST SWAP1 PUSH1 0x0 MSTORE PUSH1 0x20 PUSH1 0x0 KECCAK256 SWAP1 PUSH1 0x1F ADD PUSH1 0x20 SWAP1 DIV DUP2 ADD SWAP3 DUP3 PUSH3 0x3FA JUMPI PUSH1 0x0 DUP6 SSTORE PUSH3 0x445 JUMP JUMPDEST DUP3 PUSH1 0x1F LT PUSH3 0x415 JUMPI DUP1 MLOAD PUSH1 0xFF NOT AND DUP4 DUP1 ADD OR DUP6 SSTORE PUSH3 0x445 JUMP JUMPDEST DUP3 DUP1 ADD PUSH1 0x1 ADD DUP6 SSTORE DUP3 ISZERO PUSH3 0x445 JUMPI SWAP2 DUP3 ADD JUMPDEST DUP3 DUP2 GT ISZERO PUSH3 0x445 JUMPI DUP3 MLOAD DUP3 SSTORE SWAP2 PUSH1 0x20 ADD SWAP2 SWAP1 PUSH1 0x1 ADD SWAP1 PUSH3 0x428 JUMP JUMPDEST POP PUSH3 0x453 SWAP3 SWAP2 POP PUSH3 0x457 JUMP JUMPDEST POP SWAP1 JUMP JUMPDEST JUMPDEST DUP1 DUP3 GT ISZERO PUSH3 0x453 JUMPI PUSH1 0x0 DUP2 SSTORE PUSH1 0x1 ADD PUSH3 0x458 JUMP JUMPDEST DUP1 MLOAD PUSH1 0x1 PUSH1 0x1 PUSH1 0xA0 SHL SUB DUP2 AND DUP2 EQ PUSH3 0x486 JUMPI PUSH1 0x0 DUP1 REVERT JUMPDEST SWAP2 SWAP1 POP JUMP JUMPDEST PUSH1 0x0 DUP3 PUSH1 0x1F DUP4 ADD SLT PUSH3 0x49C JUMPI DUP1 DUP2 REVERT JUMPDEST DUP2 MLOAD PUSH1 0x1 PUSH1 0x1 PUSH1 0x40 SHL SUB DUP1 DUP3 GT ISZERO PUSH3 0x4B9 JUMPI PUSH3 0x4B9 PUSH3 0x708 JUMP JUMPDEST PUSH1 0x40 MLOAD PUSH1 0x1F DUP4 ADD PUSH1 0x1F NOT SWAP1 DUP2 AND PUSH1 0x3F ADD AND DUP2 ADD SWAP1 DUP3 DUP3 GT DUP2 DUP4 LT OR ISZERO PUSH3 0x4E4 JUMPI PUSH3 0x4E4 PUSH3 0x708 JUMP JUMPDEST DUP2 PUSH1 0x40 MSTORE DUP4 DUP2 MSTORE PUSH1 0x20 SWAP3 POP DUP7 DUP4 DUP6 DUP9 ADD ADD GT ISZERO PUSH3 0x500 JUMPI DUP5 DUP6 REVERT JUMPDEST DUP5 SWAP2 POP JUMPDEST DUP4 DUP3 LT ISZERO PUSH3 0x523 JUMPI DUP6 DUP3 ADD DUP4 ADD MLOAD DUP2 DUP4 ADD DUP5 ADD MSTORE SWAP1 DUP3 ADD SWAP1 PUSH3 0x504 JUMP JUMPDEST DUP4 DUP3 GT ISZERO PUSH3 0x534 JUMPI DUP5 DUP4 DUP6 DUP4 ADD ADD MSTORE JUMPDEST SWAP7 SWAP6 POP POP POP POP POP POP JUMP JUMPDEST PUSH1 0x0 DUP1 PUSH1 0x0 DUP1 PUSH1 0x0 DUP1 PUSH1 0x0 DUP1 PUSH1 0x0 PUSH2 0x120 DUP11 DUP13 SUB SLT ISZERO PUSH3 0x55D JUMPI DUP5 DUP6 REVERT JUMPDEST DUP10 MLOAD SWAP9 POP PUSH3 0x56F PUSH1 0x20 DUP12 ADD PUSH3 0x46E JUMP JUMPDEST SWAP8 POP PUSH3 0x57F PUSH1 0x40 DUP12 ADD PUSH3 0x46E JUMP JUMPDEST SWAP7 POP PUSH3 0x58F PUSH1 0x60 DUP12 ADD PUSH3 0x46E JUMP JUMPDEST SWAP6 POP PUSH3 0x59F PUSH1 0x80 DUP12 ADD PUSH3 0x46E JUMP JUMPDEST SWAP5 POP PUSH3 0x5AF PUSH1 0xA0 DUP12 ADD PUSH3 0x46E JUMP JUMPDEST PUSH1 0xC0 DUP12 ADD MLOAD SWAP1 SWAP5 POP PUSH1 0x1 PUSH1 0x1 PUSH1 0x40 SHL SUB DUP1 DUP3 GT ISZERO PUSH3 0x5CC JUMPI DUP5 DUP6 REVERT JUMPDEST PUSH3 0x5DA DUP14 DUP4 DUP15 ADD PUSH3 0x48B JUMP JUMPDEST SWAP5 POP PUSH1 0xE0 DUP13 ADD MLOAD SWAP2 POP DUP1 DUP3 GT ISZERO PUSH3 0x5F0 JUMPI DUP4 DUP5 REVERT JUMPDEST POP PUSH3 0x5FF DUP13 DUP3 DUP14 ADD PUSH3 0x48B JUMP JUMPDEST SWAP3 POP POP PUSH2 0x100 DUP11 ADD MLOAD PUSH1 0xFF DUP2 AND DUP2 EQ PUSH3 0x617 JUMPI DUP2 DUP3 REVERT JUMPDEST DUP1 SWAP2 POP POP SWAP3 SWAP6 SWAP9 POP SWAP3 SWAP6 SWAP9 POP SWAP3 SWAP6 SWAP9 JUMP JUMPDEST PUSH1 0x0 DUP1 DUP4 SLOAD DUP3 PUSH1 0x1 DUP3 DUP2 SHR SWAP2 POP DUP1 DUP4 AND DUP1 PUSH3 0x645 JUMPI PUSH1 0x7F DUP4 AND SWAP3 POP JUMPDEST PUSH1 0x20 DUP1 DUP5 LT DUP3 EQ ISZERO PUSH3 0x666 JUMPI PUSH4 0x4E487B71 PUSH1 0xE0 SHL DUP8 MSTORE PUSH1 0x22 PUSH1 0x4 MSTORE PUSH1 0x24 DUP8 REVERT JUMPDEST DUP2 DUP1 ISZERO PUSH3 0x67D JUMPI PUSH1 0x1 DUP2 EQ PUSH3 0x68F JUMPI PUSH3 0x6BD JUMP JUMPDEST PUSH1 0xFF NOT DUP7 AND DUP10 MSTORE DUP5 DUP10 ADD SWAP7 POP PUSH3 0x6BD JUMP JUMPDEST PUSH1 0x0 DUP11 DUP2 MSTORE PUSH1 0x20 SWAP1 KECCAK256 DUP9 JUMPDEST DUP7 DUP2 LT ISZERO PUSH3 0x6B5 JUMPI DUP2 SLOAD DUP12 DUP3 ADD MSTORE SWAP1 DUP6 ADD SWAP1 DUP4 ADD PUSH3 0x69A JUMP JUMPDEST POP POP DUP5 DUP10 ADD SWAP7 POP JUMPDEST POP SWAP5 SWAP9 SWAP8 POP POP POP POP POP POP POP POP JUMP JUMPDEST PUSH1 0x1 DUP2 DUP2 SHR SWAP1 DUP3 AND DUP1 PUSH3 0x6E0 JUMPI PUSH1 0x7F DUP3 AND SWAP2 POP JUMPDEST PUSH1 0x20 DUP3 LT DUP2 EQ ISZERO PUSH3 0x702 JUMPI PUSH4 0x4E487B71 PUSH1 0xE0 SHL PUSH1 0x0 MSTORE PUSH1 0x22 PUSH1 0x4 MSTORE PUSH1 0x24 PUSH1 0x0 REVERT JUMPDEST POP SWAP2 SWAP1 POP JUMP JUMPDEST PUSH4 0x4E487B71 PUSH1 0xE0 SHL PUSH1 0x0 MSTORE PUSH1 0x41 PUSH1 0x4 MSTORE PUSH1 0x24 PUSH1 0x0 REVERT JUMPDEST PUSH1 0x80 MLOAD PUSH1 0xF8 SHR PUSH1 0xA0 MLOAD PUSH1 0xC0 MLOAD PUSH2 0x18CC PUSH3 0x751 PUSH1 0x0 CODECOPY PUSH1 0x0 PUSH2 0x9A5 ADD MSTORE PUSH1 0x0 PUSH2 0x970 ADD MSTORE PUSH1 0x0 PUSH2 0x31B ADD MSTORE PUSH2 0x18CC PUSH1 0x0 RETURN INVALID PUSH1 0x80 PUSH1 0x40 MSTORE CALLVALUE DUP1 ISZERO PUSH2 0x10 JUMPI PUSH1 0x0 DUP1 REVERT JUMPDEST POP PUSH1 0x4 CALLDATASIZE LT PUSH2 0x1F7 JUMPI PUSH1 0x0 CALLDATALOAD PUSH1 0xE0 SHR DUP1 PUSH4 0x70897B23 GT PUSH2 0x120 JUMPI DUP1 PUSH4 0xAB033EA9 GT PUSH2 0xB8 JUMPI DUP1 PUSH4 0xECF70858 GT PUSH2 0x7C JUMPI DUP1 PUSH4 0xECF70858 EQ PUSH2 0x4C5 JUMPI DUP1 PUSH4 0xF39C38A0 EQ PUSH2 0x4CE JUMPI DUP1 PUSH4 0xFC0C546A EQ PUSH2 0x4E1 JUMPI DUP1 PUSH4 0xFD967F47 EQ PUSH2 0x4F4 JUMPI DUP1 PUSH4 0xFE56E232 EQ PUSH2 0x4FD JUMPI PUSH1 0x0 DUP1 REVERT JUMPDEST DUP1 PUSH4 0xAB033EA9 EQ PUSH2 0x44E JUMPI DUP1 PUSH4 0xBDC8144B EQ PUSH2 0x461 JUMPI DUP1 PUSH4 0xD505ACCF EQ PUSH2 0x474 JUMPI DUP1 PUSH4 0xDD62ED3E EQ PUSH2 0x487 JUMPI DUP1 PUSH4 0xE63697C8 EQ PUSH2 0x4B2 JUMPI PUSH1 0x0 DUP1 REVERT JUMPDEST DUP1 PUSH4 0x70897B23 EQ PUSH2 0x3A2 JUMPI DUP1 PUSH4 0x70A08231 EQ PUSH2 0x3B5 JUMPI DUP1 PUSH4 0x75DE2902 EQ PUSH2 0x3D5 JUMPI DUP1 PUSH4 0x77E3B267 EQ PUSH2 0x3DD JUMPI DUP1 PUSH4 0x7ECEBE00 EQ PUSH2 0x401 JUMPI DUP1 PUSH4 0x87788782 EQ PUSH2 0x421 JUMPI DUP1 PUSH4 0x95D89B41 EQ PUSH2 0x42A JUMPI DUP1 PUSH4 0xA6F7F5D6 EQ PUSH2 0x432 JUMPI DUP1 PUSH4 0xA9059CBB EQ PUSH2 0x43B JUMPI PUSH1 0x0 DUP1 REVERT JUMPDEST DUP1 PUSH4 0x23B872DD GT PUSH2 0x193 JUMPI DUP1 PUSH4 0x23B872DD EQ PUSH2 0x2BB JUMPI DUP1 PUSH4 0x25829410 EQ PUSH2 0x2CE JUMPI DUP1 PUSH4 0x30ADF81F EQ PUSH2 0x2EF JUMPI DUP1 PUSH4 0x313CE567 EQ PUSH2 0x316 JUMPI DUP1 PUSH4 0x3403C2FC EQ PUSH2 0x34F JUMPI DUP1 PUSH4 0x3644E515 EQ PUSH2 0x35C JUMPI DUP1 PUSH4 0x475A91D1 EQ PUSH2 0x364 JUMPI DUP1 PUSH4 0x5AA6E675 EQ PUSH2 0x37C JUMPI DUP1 PUSH4 0x6E553F65 EQ PUSH2 0x38F JUMPI PUSH1 0x0 DUP1 REVERT JUMPDEST DUP1 PUSH4 0x1E1D114 EQ PUSH2 0x1FC JUMPI DUP1 PUSH4 0x25A3A29 EQ PUSH2 0x217 JUMPI DUP1 PUSH4 0x58A8E5F EQ PUSH2 0x237 JUMPI DUP1 PUSH4 0x6FDDE03 EQ PUSH2 0x24C JUMPI DUP1 PUSH4 0x95EA7B3 EQ PUSH2 0x261 JUMPI DUP1 PUSH4 0x14C64402 EQ PUSH2 0x284 JUMPI DUP1 PUSH4 0x18160DDD EQ PUSH2 0x297 JUMPI DUP1 PUSH4 0x1F1FA133 EQ PUSH2 0x2A0 JUMPI DUP1 PUSH4 0x238EFCBC EQ PUSH2 0x2B3 JUMPI JUMPDEST PUSH1 0x0 DUP1 REVERT JUMPDEST PUSH2 0x204 PUSH2 0x510 JUMP JUMPDEST PUSH1 0x40 MLOAD SWAP1 DUP2 MSTORE PUSH1 0x20 ADD JUMPDEST PUSH1 0x40 MLOAD DUP1 SWAP2 SUB SWAP1 RETURN JUMPDEST PUSH1 0xA SLOAD PUSH2 0x22A SWAP1 PUSH1 0x1 PUSH1 0x1 PUSH1 0xA0 SHL SUB AND DUP2 JUMP JUMPDEST PUSH1 0x40 MLOAD PUSH2 0x20E SWAP2 SWAP1 PUSH2 0x16E5 JUMP JUMPDEST PUSH2 0x24A PUSH2 0x245 CALLDATASIZE PUSH1 0x4 PUSH2 0x147B JUMP JUMPDEST PUSH2 0x6BC JUMP JUMPDEST STOP JUMPDEST PUSH2 0x254 PUSH2 0x6E6 JUMP JUMPDEST PUSH1 0x40 MLOAD PUSH2 0x20E SWAP2 SWAP1 PUSH2 0x16F9 JUMP JUMPDEST PUSH2 0x274 PUSH2 0x26F CALLDATASIZE PUSH1 0x4 PUSH2 0x1573 JUMP JUMPDEST PUSH2 0x774 JUMP JUMPDEST PUSH1 0x40 MLOAD SWAP1 ISZERO ISZERO DUP2 MSTORE PUSH1 0x20 ADD PUSH2 0x20E JUMP JUMPDEST PUSH2 0x24A PUSH2 0x292 CALLDATASIZE PUSH1 0x4 PUSH2 0x159C JUMP JUMPDEST PUSH2 0x7E1 JUMP JUMPDEST PUSH2 0x204 PUSH1 0x2 SLOAD DUP2 JUMP JUMPDEST PUSH1 0xF SLOAD PUSH2 0x22A SWAP1 PUSH1 0x1 PUSH1 0x1 PUSH1 0xA0 SHL SUB AND DUP2 JUMP JUMPDEST PUSH2 0x24A PUSH2 0x837 JUMP JUMPDEST PUSH2 0x274 PUSH2 0x2C9 CALLDATASIZE PUSH1 0x4 PUSH2 0x14C7 JUMP JUMPDEST PUSH2 0x88C JUMP JUMPDEST PUSH1 0x40 DUP1 MLOAD DUP1 DUP3 ADD SWAP1 SWAP2 MSTORE PUSH1 0x5 DUP2 MSTORE PUSH5 0x312E302E3 PUSH1 0xDC SHL PUSH1 0x20 DUP3 ADD MSTORE PUSH2 0x254 JUMP JUMPDEST PUSH2 0x204 PUSH32 0x6E71EDAE12B1B97F4D1F60370FEF10105FA2FAAE0126114A169C64845D6126C9 DUP2 JUMP JUMPDEST PUSH2 0x33D PUSH32 0x0 DUP2 JUMP JUMPDEST PUSH1 0x40 MLOAD PUSH1 0xFF SWAP1 SWAP2 AND DUP2 MSTORE PUSH1 0x20 ADD PUSH2 0x20E JUMP JUMPDEST PUSH1 0xE SLOAD PUSH2 0x274 SWAP1 PUSH1 0xFF AND DUP2 JUMP JUMPDEST PUSH2 0x204 PUSH2 0x96C JUMP JUMPDEST PUSH1 0xE SLOAD PUSH2 0x22A SWAP1 PUSH2 0x100 SWAP1 DIV PUSH1 0x1 PUSH1 0x1 PUSH1 0xA0 SHL SUB AND DUP2 JUMP JUMPDEST PUSH1 0x8 SLOAD PUSH2 0x22A SWAP1 PUSH1 0x1 PUSH1 0x1 PUSH1 0xA0 SHL SUB AND DUP2 JUMP JUMPDEST PUSH2 0x204 PUSH2 0x39D CALLDATASIZE PUSH1 0x4 PUSH2 0x1604 JUMP JUMPDEST PUSH2 0x9C7 JUMP JUMPDEST PUSH2 0x24A PUSH2 0x3B0 CALLDATASIZE PUSH1 0x4 PUSH2 0x15D4 JUMP JUMPDEST PUSH2 0xABD JUMP JUMPDEST PUSH2 0x204 PUSH2 0x3C3 CALLDATASIZE PUSH1 0x4 PUSH2 0x147B JUMP JUMPDEST PUSH1 0x3 PUSH1 0x20 MSTORE PUSH1 0x0 SWAP1 DUP2 MSTORE PUSH1 0x40 SWAP1 KECCAK256 SLOAD DUP2 JUMP JUMPDEST PUSH2 0x204 PUSH2 0xB26 JUMP JUMPDEST PUSH2 0x254 PUSH1 0x40 MLOAD DUP1 PUSH1 0x40 ADD PUSH1 0x40 MSTORE DUP1 PUSH1 0x5 DUP2 MSTORE PUSH1 0x20 ADD PUSH5 0x312E302E3 PUSH1 0xDC SHL DUP2 MSTORE POP DUP2 JUMP JUMPDEST PUSH2 0x204 PUSH2 0x40F CALLDATASIZE PUSH1 0x4 PUSH2 0x147B JUMP JUMPDEST PUSH1 0x5 PUSH1 0x20 MSTORE PUSH1 0x0 SWAP1 DUP2 MSTORE PUSH1 0x40 SWAP1 KECCAK256 SLOAD DUP2 JUMP JUMPDEST PUSH2 0x204 PUSH1 0xD SLOAD DUP2 JUMP JUMPDEST PUSH2 0x254 PUSH2 0xB38 JUMP JUMPDEST PUSH2 0x204 PUSH1 0xC SLOAD DUP2 JUMP JUMPDEST PUSH2 0x274 PUSH2 0x449 CALLDATASIZE PUSH1 0x4 PUSH2 0x1573 JUMP JUMPDEST PUSH2 0xB45 JUMP JUMPDEST PUSH2 0x24A PUSH2 0x45C CALLDATASIZE PUSH1 0x4 PUSH2 0x147B JUMP JUMPDEST PUSH2 0xBAB JUMP JUMPDEST PUSH2 0x24A PUSH2 0x46F CALLDATASIZE PUSH1 0x4 PUSH2 0x15D4 JUMP JUMPDEST PUSH2 0xBD5 JUMP JUMPDEST PUSH2 0x24A PUSH2 0x482 CALLDATASIZE PUSH1 0x4 PUSH2 0x1502 JUMP JUMPDEST PUSH2 0xC12 JUMP JUMPDEST PUSH2 0x204 PUSH2 0x495 CALLDATASIZE PUSH1 0x4 PUSH2 0x1495 JUMP JUMPDEST PUSH1 0x4 PUSH1 0x20 SWAP1 DUP2 MSTORE PUSH1 0x0 SWAP3 DUP4 MSTORE PUSH1 0x40 DUP1 DUP5 KECCAK256 SWAP1 SWAP2 MSTORE SWAP1 DUP3 MSTORE SWAP1 KECCAK256 SLOAD DUP2 JUMP JUMPDEST PUSH2 0x204 PUSH2 0x4C0 CALLDATASIZE PUSH1 0x4 PUSH2 0x1626 JUMP JUMPDEST PUSH2 0xE5D JUMP JUMPDEST PUSH2 0x204 PUSH1 0xB SLOAD DUP2 JUMP JUMPDEST PUSH1 0x9 SLOAD PUSH2 0x22A SWAP1 PUSH1 0x1 PUSH1 0x1 PUSH1 0xA0 SHL SUB AND DUP2 JUMP JUMPDEST PUSH1 0x7 SLOAD PUSH2 0x22A SWAP1 PUSH1 0x1 PUSH1 0x1 PUSH1 0xA0 SHL SUB AND DUP2 JUMP JUMPDEST PUSH2 0x204 PUSH2 0x2710 DUP2 JUMP JUMPDEST PUSH2 0x24A PUSH2 0x50B CALLDATASIZE PUSH1 0x4 PUSH2 0x15D4 JUMP JUMPDEST PUSH2 0xE8E JUMP JUMPDEST PUSH1 0x0 DUP1 PUSH1 0xF PUSH1 0x0 SWAP1 SLOAD SWAP1 PUSH2 0x100 EXP SWAP1 DIV PUSH1 0x1 PUSH1 0x1 PUSH1 0xA0 SHL SUB AND PUSH1 0x1 PUSH1 0x1 PUSH1 0xA0 SHL SUB AND PUSH4 0xBB7B8B80 PUSH1 0x40 MLOAD DUP2 PUSH4 0xFFFFFFFF AND PUSH1 0xE0 SHL DUP2 MSTORE PUSH1 0x4 ADD PUSH1 0x20 PUSH1 0x40 MLOAD DUP1 DUP4 SUB DUP2 DUP7 DUP1 EXTCODESIZE ISZERO DUP1 ISZERO PUSH2 0x561 JUMPI PUSH1 0x0 DUP1 REVERT JUMPDEST POP GAS STATICCALL ISZERO DUP1 ISZERO PUSH2 0x575 JUMPI RETURNDATASIZE PUSH1 0x0 DUP1 RETURNDATACOPY RETURNDATASIZE PUSH1 0x0 REVERT JUMPDEST POP POP POP POP PUSH1 0x40 MLOAD RETURNDATASIZE PUSH1 0x1F NOT PUSH1 0x1F DUP3 ADD AND DUP3 ADD DUP1 PUSH1 0x40 MSTORE POP DUP2 ADD SWAP1 PUSH2 0x599 SWAP2 SWAP1 PUSH2 0x15EC JUMP JUMPDEST PUSH1 0xE SLOAD PUSH1 0x40 MLOAD PUSH4 0x70A08231 PUSH1 0xE0 SHL DUP2 MSTORE SWAP2 SWAP3 POP DUP3 SWAP2 PUSH2 0x100 SWAP1 SWAP2 DIV PUSH1 0x1 PUSH1 0x1 PUSH1 0xA0 SHL SUB AND SWAP1 PUSH4 0x70A08231 SWAP1 PUSH2 0x5D2 SWAP1 ADDRESS SWAP1 PUSH1 0x4 ADD PUSH2 0x16E5 JUMP JUMPDEST PUSH1 0x20 PUSH1 0x40 MLOAD DUP1 DUP4 SUB DUP2 DUP7 DUP1 EXTCODESIZE ISZERO DUP1 ISZERO PUSH2 0x5EA JUMPI PUSH1 0x0 DUP1 REVERT JUMPDEST POP GAS STATICCALL ISZERO DUP1 ISZERO PUSH2 0x5FE JUMPI RETURNDATASIZE PUSH1 0x0 DUP1 RETURNDATACOPY RETURNDATASIZE PUSH1 0x0 REVERT JUMPDEST POP POP POP POP PUSH1 0x40 MLOAD RETURNDATASIZE PUSH1 0x1F NOT PUSH1 0x1F DUP3 ADD AND DUP3 ADD DUP1 PUSH1 0x40 MSTORE POP DUP2 ADD SWAP1 PUSH2 0x622 SWAP2 SWAP1 PUSH2 0x15EC JUMP JUMPDEST PUSH2 0x62C SWAP2 SWAP1 PUSH2 0x17E1 JUMP JUMPDEST PUSH1 0x7 SLOAD PUSH1 0x40 MLOAD PUSH4 0x70A08231 PUSH1 0xE0 SHL DUP2 MSTORE PUSH1 0x1 PUSH1 0x1 PUSH1 0xA0 SHL SUB SWAP1 SWAP2 AND SWAP1 PUSH4 0x70A08231 SWAP1 PUSH2 0x65C SWAP1 ADDRESS SWAP1 PUSH1 0x4 ADD PUSH2 0x16E5 JUMP JUMPDEST PUSH1 0x20 PUSH1 0x40 MLOAD DUP1 DUP4 SUB DUP2 DUP7 DUP1 EXTCODESIZE ISZERO DUP1 ISZERO PUSH2 0x674 JUMPI PUSH1 0x0 DUP1 REVERT JUMPDEST POP GAS STATICCALL ISZERO DUP1 ISZERO PUSH2 0x688 JUMPI RETURNDATASIZE PUSH1 0x0 DUP1 RETURNDATACOPY RETURNDATASIZE PUSH1 0x0 REVERT JUMPDEST POP POP POP POP PUSH1 0x40 MLOAD RETURNDATASIZE PUSH1 0x1F NOT PUSH1 0x1F DUP3 ADD AND DUP3 ADD DUP1 PUSH1 0x40 MSTORE POP DUP2 ADD SWAP1 PUSH2 0x6AC SWAP2 SWAP1 PUSH2 0x15EC JUMP JUMPDEST PUSH2 0x6B6 SWAP2 SWAP1 PUSH2 0x17A9 JUMP JUMPDEST SWAP2 POP POP SWAP1 JUMP JUMPDEST PUSH2 0x6C4 PUSH2 0xF6B JUMP JUMPDEST PUSH1 0xA DUP1 SLOAD PUSH1 0x1 PUSH1 0x1 PUSH1 0xA0 SHL SUB NOT AND PUSH1 0x1 PUSH1 0x1 PUSH1 0xA0 SHL SUB SWAP3 SWAP1 SWAP3 AND SWAP2 SWAP1 SWAP2 OR SWAP1 SSTORE JUMP JUMPDEST PUSH1 0x0 DUP1 SLOAD PUSH2 0x6F3 SWAP1 PUSH2 0x1817 JUMP JUMPDEST DUP1 PUSH1 0x1F ADD PUSH1 0x20 DUP1 SWAP2 DIV MUL PUSH1 0x20 ADD PUSH1 0x40 MLOAD SWAP1 DUP2 ADD PUSH1 0x40 MSTORE DUP1 SWAP3 SWAP2 SWAP1 DUP2 DUP2 MSTORE PUSH1 0x20 ADD DUP3 DUP1 SLOAD PUSH2 0x71F SWAP1 PUSH2 0x1817 JUMP JUMPDEST DUP1 ISZERO PUSH2 0x76C JUMPI DUP1 PUSH1 0x1F LT PUSH2 0x741 JUMPI PUSH2 0x100 DUP1 DUP4 SLOAD DIV MUL DUP4 MSTORE SWAP2 PUSH1 0x20 ADD SWAP2 PUSH2 0x76C JUMP JUMPDEST DUP3 ADD SWAP2 SWAP1 PUSH1 0x0 MSTORE PUSH1 0x20 PUSH1 0x0 KECCAK256 SWAP1 JUMPDEST DUP2 SLOAD DUP2 MSTORE SWAP1 PUSH1 0x1 ADD SWAP1 PUSH1 0x20 ADD DUP1 DUP4 GT PUSH2 0x74F JUMPI DUP3 SWAP1 SUB PUSH1 0x1F AND DUP3 ADD SWAP2 JUMPDEST POP POP POP POP POP DUP2 JUMP JUMPDEST CALLER PUSH1 0x0 DUP2 DUP2 MSTORE PUSH1 0x4 PUSH1 0x20 SWAP1 DUP2 MSTORE PUSH1 0x40 DUP1 DUP4 KECCAK256 PUSH1 0x1 PUSH1 0x1 PUSH1 0xA0 SHL SUB DUP8 AND DUP1 DUP6 MSTORE SWAP3 MSTORE DUP1 DUP4 KECCAK256 DUP6 SWAP1 SSTORE MLOAD SWAP2 SWAP3 SWAP1 SWAP2 PUSH32 0x8C5BE1E5EBEC7D5BD14F71427D1E84F3DD0314C0F7B2291E5B200AC8C7C3B925 SWAP1 PUSH2 0x7CF SWAP1 DUP7 DUP2 MSTORE PUSH1 0x20 ADD SWAP1 JUMP JUMPDEST PUSH1 0x40 MLOAD DUP1 SWAP2 SUB SWAP1 LOG3 POP PUSH1 0x1 JUMPDEST SWAP3 SWAP2 POP POP JUMP JUMPDEST DUP1 ISZERO PUSH2 0x7EF JUMPI PUSH2 0x7EF PUSH2 0xF6B JUMP JUMPDEST PUSH1 0xE DUP1 SLOAD PUSH1 0xFF NOT AND DUP3 ISZERO ISZERO SWAP1 DUP2 OR SWAP1 SWAP2 SSTORE PUSH1 0x40 MLOAD SWAP1 DUP2 MSTORE PUSH32 0xBA40372A3A724DCA3C57156128EF1E896724B65B37A17F190B1AD5DE68F3A4F3 SWAP1 PUSH1 0x20 ADD JUMPDEST PUSH1 0x40 MLOAD DUP1 SWAP2 SUB SWAP1 LOG1 POP JUMP JUMPDEST PUSH2 0x83F PUSH2 0xFBE JUMP JUMPDEST PUSH1 0x8 DUP1 SLOAD PUSH1 0x1 PUSH1 0x1 PUSH1 0xA0 SHL SUB NOT AND CALLER SWAP1 DUP2 OR SWAP1 SWAP2 SSTORE PUSH1 0x40 MLOAD PUSH32 0x8D55D160C0009EB3D739442DF0A3CA089ED64378BFAC017E7DDAD463F9815B87 SWAP2 PUSH2 0x882 SWAP2 PUSH2 0x16E5 JUMP JUMPDEST PUSH1 0x40 MLOAD DUP1 SWAP2 SUB SWAP1 LOG1 JUMP JUMPDEST PUSH1 0x1 PUSH1 0x1 PUSH1 0xA0 SHL SUB DUP4 AND PUSH1 0x0 SWAP1 DUP2 MSTORE PUSH1 0x4 PUSH1 0x20 SWAP1 DUP2 MSTORE PUSH1 0x40 DUP1 DUP4 KECCAK256 CALLER DUP5 MSTORE SWAP1 SWAP2 MSTORE DUP2 KECCAK256 SLOAD PUSH1 0x0 NOT DUP2 EQ PUSH2 0x8E8 JUMPI PUSH2 0x8C3 DUP4 DUP3 PUSH2 0x1800 JUMP JUMPDEST PUSH1 0x1 PUSH1 0x1 PUSH1 0xA0 SHL SUB DUP7 AND PUSH1 0x0 SWAP1 DUP2 MSTORE PUSH1 0x4 PUSH1 0x20 SWAP1 DUP2 MSTORE PUSH1 0x40 DUP1 DUP4 KECCAK256 CALLER DUP5 MSTORE SWAP1 SWAP2 MSTORE SWAP1 KECCAK256 SSTORE JUMPDEST PUSH1 0x1 PUSH1 0x1 PUSH1 0xA0 SHL SUB DUP6 AND PUSH1 0x0 SWAP1 DUP2 MSTORE PUSH1 0x3 PUSH1 0x20 MSTORE PUSH1 0x40 DUP2 KECCAK256 DUP1 SLOAD DUP6 SWAP3 SWAP1 PUSH2 0x910 SWAP1 DUP5 SWAP1 PUSH2 0x1800 JUMP JUMPDEST SWAP1 SWAP2 SSTORE POP POP PUSH1 0x1 PUSH1 0x1 PUSH1 0xA0 SHL SUB DUP1 DUP6 AND PUSH1 0x0 DUP2 DUP2 MSTORE PUSH1 0x3 PUSH1 0x20 MSTORE PUSH1 0x40 SWAP1 DUP2 SWAP1 KECCAK256 DUP1 SLOAD DUP8 ADD SWAP1 SSTORE MLOAD SWAP1 SWAP2 DUP8 AND SWAP1 PUSH1 0x0 DUP1 MLOAD PUSH1 0x20 PUSH2 0x1877 DUP4 CODECOPY DUP2 MLOAD SWAP2 MSTORE SWAP1 PUSH2 0x959 SWAP1 DUP8 DUP2 MSTORE PUSH1 0x20 ADD SWAP1 JUMP JUMPDEST PUSH1 0x40 MLOAD DUP1 SWAP2 SUB SWAP1 LOG3 POP PUSH1 0x1 SWAP5 SWAP4 POP POP POP POP JUMP JUMPDEST PUSH1 0x0 PUSH32 0x0 CHAINID EQ PUSH2 0x9A2 JUMPI PUSH2 0x99D PUSH2 0x1018 JUMP JUMPDEST SWAP1 POP SWAP1 JUMP JUMPDEST POP PUSH32 0x0 SWAP1 JUMP JUMPDEST PUSH1 0x0 PUSH1 0x2 PUSH1 0x6 SLOAD EQ ISZERO PUSH2 0x9F5 JUMPI PUSH1 0x40 MLOAD PUSH3 0x461BCD PUSH1 0xE5 SHL DUP2 MSTORE PUSH1 0x4 ADD PUSH2 0x9EC SWAP1 PUSH2 0x1772 JUMP JUMPDEST PUSH1 0x40 MLOAD DUP1 SWAP2 SUB SWAP1 REVERT JUMPDEST PUSH1 0x2 PUSH1 0x6 SSTORE PUSH2 0xA02 PUSH2 0x10B2 JUMP JUMPDEST PUSH2 0xA2F DUP4 PUSH1 0x40 MLOAD DUP1 PUSH1 0x40 ADD PUSH1 0x40 MSTORE DUP1 PUSH1 0xB DUP2 MSTORE PUSH1 0x20 ADD PUSH11 0x1E995C9BC8185B5BDD5B9D PUSH1 0xAA SHL DUP2 MSTORE POP PUSH2 0x1100 JUMP JUMPDEST PUSH1 0xB SLOAD DUP4 PUSH2 0xA3B PUSH2 0x510 JUMP JUMPDEST PUSH2 0xA45 SWAP2 SWAP1 PUSH2 0x17A9 JUMP JUMPDEST GT ISZERO PUSH2 0xA84 JUMPI PUSH1 0x40 MLOAD PUSH3 0x461BCD PUSH1 0xE5 SHL DUP2 MSTORE PUSH1 0x20 PUSH1 0x4 DUP3 ADD MSTORE PUSH1 0xE PUSH1 0x24 DUP3 ADD MSTORE PUSH14 0x195E18D95CDCC819195C1BDCDA5D PUSH1 0x92 SHL PUSH1 0x44 DUP3 ADD MSTORE PUSH1 0x64 ADD PUSH2 0x9EC JUMP JUMPDEST PUSH2 0xA8E DUP3 DUP5 PUSH2 0x1124 JUMP JUMPDEST PUSH1 0x7 SLOAD SWAP1 SWAP2 POP PUSH2 0xAA9 SWAP1 PUSH1 0x1 PUSH1 0x1 PUSH1 0xA0 SHL SUB AND CALLER ADDRESS DUP7 PUSH2 0x1162 JUMP JUMPDEST PUSH2 0xAB2 DUP4 PUSH2 0x11F6 JUMP JUMPDEST PUSH1 0x1 PUSH1 0x6 SSTORE SWAP3 SWAP2 POP POP JUMP JUMPDEST PUSH2 0xAC5 PUSH2 0xF6B JUMP JUMPDEST PUSH2 0xAD2 PUSH1 0x2 PUSH2 0x2710 PUSH2 0x17C1 JUMP JUMPDEST DUP2 GT ISZERO PUSH2 0xAF1 JUMPI PUSH1 0x40 MLOAD PUSH3 0x461BCD PUSH1 0xE5 SHL DUP2 MSTORE PUSH1 0x4 ADD PUSH2 0x9EC SWAP1 PUSH2 0x174C JUMP JUMPDEST PUSH1 0xD DUP2 SWAP1 SSTORE PUSH1 0x40 MLOAD DUP2 DUP2 MSTORE PUSH32 0x810A1C261CA2C0CD86A0152C51C43BA9DC329639D2349F98140891B2EA798EB SWAP1 PUSH1 0x20 ADD PUSH2 0x82C JUMP JUMPDEST PUSH1 0x0 PUSH2 0x99D PUSH2 0xB33 PUSH2 0x510 JUMP JUMPDEST PUSH2 0x1384 JUMP JUMPDEST PUSH1 0x1 DUP1 SLOAD PUSH2 0x6F3 SWAP1 PUSH2 0x1817 JUMP JUMPDEST CALLER PUSH1 0x0 SWAP1 DUP2 MSTORE PUSH1 0x3 PUSH1 0x20 MSTORE PUSH1 0x40 DUP2 KECCAK256 DUP1 SLOAD DUP4 SWAP2 SWAP1 DUP4 SWAP1 PUSH2 0xB66 SWAP1 DUP5 SWAP1 PUSH2 0x1800 JUMP JUMPDEST SWAP1 SWAP2 SSTORE POP POP PUSH1 0x1 PUSH1 0x1 PUSH1 0xA0 SHL SUB DUP4 AND PUSH1 0x0 DUP2 DUP2 MSTORE PUSH1 0x3 PUSH1 0x20 MSTORE PUSH1 0x40 SWAP1 DUP2 SWAP1 KECCAK256 DUP1 SLOAD DUP6 ADD SWAP1 SSTORE MLOAD CALLER SWAP1 PUSH1 0x0 DUP1 MLOAD PUSH1 0x20 PUSH2 0x1877 DUP4 CODECOPY DUP2 MLOAD SWAP2 MSTORE SWAP1 PUSH2 0x7CF SWAP1 DUP7 DUP2 MSTORE PUSH1 0x20 ADD SWAP1 JUMP JUMPDEST PUSH2 0xBB3 PUSH2 0xF6B JUMP JUMPDEST PUSH1 0x9 DUP1 SLOAD PUSH1 0x1 PUSH1 0x1 PUSH1 0xA0 SHL SUB NOT AND PUSH1 0x1 PUSH1 0x1 PUSH1 0xA0 SHL SUB SWAP3 SWAP1 SWAP3 AND SWAP2 SWAP1 SWAP2 OR SWAP1 SSTORE JUMP JUMPDEST PUSH2 0xBDD PUSH2 0xF6B JUMP JUMPDEST PUSH1 0xB DUP2 SWAP1 SSTORE PUSH1 0x40 MLOAD DUP2 DUP2 MSTORE PUSH32 0xAE565AAB888BCA5E19E25A13DB7B0C9144305BF55CB0F3F4D724F730E5ACDD62 SWAP1 PUSH1 0x20 ADD PUSH2 0x82C JUMP JUMPDEST TIMESTAMP DUP5 LT ISZERO PUSH2 0xC5C JUMPI PUSH1 0x40 MLOAD PUSH3 0x461BCD PUSH1 0xE5 SHL DUP2 MSTORE PUSH1 0x20 PUSH1 0x4 DUP3 ADD MSTORE PUSH1 0x17 PUSH1 0x24 DUP3 ADD MSTORE PUSH23 0x14115493525517D11150511312539157D1561412549151 PUSH1 0x4A SHL PUSH1 0x44 DUP3 ADD MSTORE PUSH1 0x64 ADD PUSH2 0x9EC JUMP JUMPDEST PUSH1 0x0 PUSH2 0xC66 PUSH2 0x96C JUMP JUMPDEST PUSH1 0x1 PUSH1 0x1 PUSH1 0xA0 SHL SUB DUP10 DUP2 AND PUSH1 0x0 DUP2 DUP2 MSTORE PUSH1 0x5 PUSH1 0x20 SWAP1 DUP2 MSTORE PUSH1 0x40 SWAP2 DUP3 SWAP1 KECCAK256 DUP1 SLOAD PUSH1 0x1 DUP2 ADD SWAP1 SWAP2 SSTORE DUP3 MLOAD PUSH32 0x6E71EDAE12B1B97F4D1F60370FEF10105FA2FAAE0126114A169C64845D6126C9 DUP2 DUP5 ADD MSTORE DUP1 DUP5 ADD SWAP5 SWAP1 SWAP5 MSTORE SWAP4 DUP13 AND PUSH1 0x60 DUP5 ADD MSTORE PUSH1 0x80 DUP4 ADD DUP12 SWAP1 MSTORE PUSH1 0xA0 DUP4 ADD SWAP4 SWAP1 SWAP4 MSTORE PUSH1 0xC0 DUP1 DUP4 ADD DUP11 SWAP1 MSTORE DUP2 MLOAD DUP1 DUP5 SUB SWAP1 SWAP2 ADD DUP2 MSTORE PUSH1 0xE0 DUP4 ADD SWAP1 SWAP2 MSTORE DUP1 MLOAD SWAP3 ADD SWAP2 SWAP1 SWAP2 KECCAK256 PUSH2 0x1901 PUSH1 0xF0 SHL PUSH2 0x100 DUP4 ADD MSTORE PUSH2 0x102 DUP3 ADD SWAP3 SWAP1 SWAP3 MSTORE PUSH2 0x122 DUP2 ADD SWAP2 SWAP1 SWAP2 MSTORE PUSH2 0x142 ADD PUSH1 0x40 DUP1 MLOAD PUSH1 0x1F NOT DUP2 DUP5 SUB ADD DUP2 MSTORE DUP3 DUP3 MSTORE DUP1 MLOAD PUSH1 0x20 SWAP2 DUP3 ADD KECCAK256 PUSH1 0x0 DUP1 DUP6 MSTORE SWAP2 DUP5 ADD DUP1 DUP5 MSTORE DUP2 SWAP1 MSTORE PUSH1 0xFF DUP9 AND SWAP3 DUP5 ADD SWAP3 SWAP1 SWAP3 MSTORE PUSH1 0x60 DUP4 ADD DUP7 SWAP1 MSTORE PUSH1 0x80 DUP4 ADD DUP6 SWAP1 MSTORE SWAP1 SWAP3 POP SWAP1 PUSH1 0x1 SWAP1 PUSH1 0xA0 ADD PUSH1 0x20 PUSH1 0x40 MLOAD PUSH1 0x20 DUP2 SUB SWAP1 DUP1 DUP5 SUB SWAP1 DUP6 GAS STATICCALL ISZERO DUP1 ISZERO PUSH2 0xD7F JUMPI RETURNDATASIZE PUSH1 0x0 DUP1 RETURNDATACOPY RETURNDATASIZE PUSH1 0x0 REVERT JUMPDEST POP POP PUSH1 0x40 MLOAD PUSH1 0x1F NOT ADD MLOAD SWAP2 POP POP PUSH1 0x1 PUSH1 0x1 PUSH1 0xA0 SHL SUB DUP2 AND ISZERO DUP1 ISZERO SWAP1 PUSH2 0xDB5 JUMPI POP DUP9 PUSH1 0x1 PUSH1 0x1 PUSH1 0xA0 SHL SUB AND DUP2 PUSH1 0x1 PUSH1 0x1 PUSH1 0xA0 SHL SUB AND EQ JUMPDEST PUSH2 0xDF2 JUMPI PUSH1 0x40 MLOAD PUSH3 0x461BCD PUSH1 0xE5 SHL DUP2 MSTORE PUSH1 0x20 PUSH1 0x4 DUP3 ADD MSTORE PUSH1 0xE PUSH1 0x24 DUP3 ADD MSTORE PUSH14 0x24A72B20A624A22FA9A4A3A722A9 PUSH1 0x91 SHL PUSH1 0x44 DUP3 ADD MSTORE PUSH1 0x64 ADD PUSH2 0x9EC JUMP JUMPDEST PUSH1 0x1 PUSH1 0x1 PUSH1 0xA0 SHL SUB SWAP1 DUP2 AND PUSH1 0x0 SWAP1 DUP2 MSTORE PUSH1 0x4 PUSH1 0x20 SWAP1 DUP2 MSTORE PUSH1 0x40 DUP1 DUP4 KECCAK256 DUP12 DUP6 AND DUP1 DUP6 MSTORE SWAP1 DUP4 MSTORE SWAP3 DUP2 SWAP1 KECCAK256 DUP11 SWAP1 SSTORE MLOAD DUP10 DUP2 MSTORE SWAP2 SWAP4 POP SWAP2 DUP11 AND SWAP2 PUSH32 0x8C5BE1E5EBEC7D5BD14F71427D1E84F3DD0314C0F7B2291E5B200AC8C7C3B925 SWAP2 ADD PUSH1 0x40 MLOAD DUP1 SWAP2 SUB SWAP1 LOG3 POP POP POP POP POP POP POP JUMP JUMPDEST PUSH1 0x0 PUSH1 0x2 PUSH1 0x6 SLOAD EQ ISZERO PUSH2 0xE82 JUMPI PUSH1 0x40 MLOAD PUSH3 0x461BCD PUSH1 0xE5 SHL DUP2 MSTORE PUSH1 0x4 ADD PUSH2 0x9EC SWAP1 PUSH2 0x1772 JUMP JUMPDEST PUSH1 0x1 PUSH1 0x6 SSTORE SWAP4 SWAP3 POP POP POP JUMP JUMPDEST PUSH2 0xE96 PUSH2 0xF6B JUMP JUMPDEST PUSH2 0x2710 DUP2 GT ISZERO PUSH2 0xEB8 JUMPI PUSH1 0x40 MLOAD PUSH3 0x461BCD PUSH1 0xE5 SHL DUP2 MSTORE PUSH1 0x4 ADD PUSH2 0x9EC SWAP1 PUSH2 0x174C JUMP JUMPDEST PUSH1 0xC DUP2 SWAP1 SSTORE PUSH1 0x40 MLOAD DUP2 DUP2 MSTORE PUSH32 0x7A7883B0074F96E2C7FAB65EB25ABF624C488761A5DB889E3BB84855DCC6DAAF SWAP1 PUSH1 0x20 ADD PUSH2 0x82C JUMP JUMPDEST PUSH1 0x0 PUSH1 0x40 MLOAD PUSH4 0x95EA7B3 PUSH1 0xE0 SHL DUP2 MSTORE PUSH1 0x1 PUSH1 0x1 PUSH1 0xA0 SHL SUB DUP5 AND PUSH1 0x4 DUP3 ADD MSTORE DUP3 PUSH1 0x24 DUP3 ADD MSTORE PUSH1 0x0 DUP1 PUSH1 0x44 DUP4 PUSH1 0x0 DUP10 GAS CALL SWAP2 POP POP PUSH2 0xF28 DUP2 PUSH2 0x13BF JUMP JUMPDEST PUSH2 0xF65 JUMPI PUSH1 0x40 MLOAD PUSH3 0x461BCD PUSH1 0xE5 SHL DUP2 MSTORE PUSH1 0x20 PUSH1 0x4 DUP3 ADD MSTORE PUSH1 0xE PUSH1 0x24 DUP3 ADD MSTORE PUSH14 0x1054141493D59157D19052531151 PUSH1 0x92 SHL PUSH1 0x44 DUP3 ADD MSTORE PUSH1 0x64 ADD PUSH2 0x9EC JUMP JUMPDEST POP POP POP POP JUMP JUMPDEST PUSH1 0x8 SLOAD PUSH1 0x1 PUSH1 0x1 PUSH1 0xA0 SHL SUB AND CALLER EQ PUSH2 0xFBC JUMPI PUSH1 0x40 MLOAD PUSH3 0x461BCD PUSH1 0xE5 SHL DUP2 MSTORE PUSH1 0x20 PUSH1 0x4 DUP3 ADD MSTORE PUSH1 0x14 PUSH1 0x24 DUP3 ADD MSTORE PUSH20 0x616363657373203A3A20476F7665726E616E6365 PUSH1 0x60 SHL PUSH1 0x44 DUP3 ADD MSTORE PUSH1 0x64 ADD PUSH2 0x9EC JUMP JUMPDEST JUMP JUMPDEST PUSH1 0x9 SLOAD PUSH1 0x1 PUSH1 0x1 PUSH1 0xA0 SHL SUB AND CALLER EQ PUSH2 0xFBC JUMPI PUSH1 0x40 MLOAD PUSH3 0x461BCD PUSH1 0xE5 SHL DUP2 MSTORE PUSH1 0x20 PUSH1 0x4 DUP3 ADD MSTORE PUSH1 0x1B PUSH1 0x24 DUP3 ADD MSTORE PUSH32 0x616363657373203A3A2070656E64696E67476F7665726E616E63650000000000 PUSH1 0x44 DUP3 ADD MSTORE PUSH1 0x64 ADD PUSH2 0x9EC JUMP JUMPDEST PUSH1 0x0 PUSH32 0x8B73C3C69BB8FE3D512ECC4CF759CC79239F7B179B0FFACAA9A75D522B39400F PUSH1 0x0 PUSH1 0x40 MLOAD PUSH2 0x104A SWAP2 SWAP1 PUSH2 0x164A JUMP JUMPDEST PUSH1 0x40 DUP1 MLOAD SWAP2 DUP3 SWAP1 SUB DUP3 KECCAK256 PUSH1 0x20 DUP4 ADD SWAP4 SWAP1 SWAP4 MSTORE DUP2 ADD SWAP2 SWAP1 SWAP2 MSTORE PUSH32 0xC89EFDAA54C0F20C7ADF612882DF0950F5A951637E0307CDCB4C672F298B8BC6 PUSH1 0x60 DUP3 ADD MSTORE CHAINID PUSH1 0x80 DUP3 ADD MSTORE ADDRESS PUSH1 0xA0 DUP3 ADD MSTORE PUSH1 0xC0 ADD PUSH1 0x40 MLOAD PUSH1 0x20 DUP2 DUP4 SUB SUB DUP2 MSTORE SWAP1 PUSH1 0x40 MSTORE DUP1 MLOAD SWAP1 PUSH1 0x20 ADD KECCAK256 SWAP1 POP SWAP1 JUMP JUMPDEST PUSH1 0xA SLOAD PUSH1 0x1 PUSH1 0x1 PUSH1 0xA0 SHL SUB AND CALLER EQ PUSH2 0xFBC JUMPI PUSH1 0x40 MLOAD PUSH3 0x461BCD PUSH1 0xE5 SHL DUP2 MSTORE PUSH1 0x20 PUSH1 0x4 DUP3 ADD MSTORE PUSH1 0x11 PUSH1 0x24 DUP3 ADD MSTORE PUSH17 0x30B1B1B2B9B9901D1D102130BA31B432B9 PUSH1 0x79 SHL PUSH1 0x44 DUP3 ADD MSTORE PUSH1 0x64 ADD PUSH2 0x9EC JUMP JUMPDEST DUP1 DUP3 PUSH2 0x111F JUMPI PUSH1 0x40 MLOAD PUSH3 0x461BCD PUSH1 0xE5 SHL DUP2 MSTORE PUSH1 0x4 ADD PUSH2 0x9EC SWAP2 SWAP1 PUSH2 0x16F9 JUMP JUMPDEST POP POP POP JUMP JUMPDEST PUSH1 0x2 SLOAD PUSH1 0x0 SWAP1 ISZERO PUSH2 0x1155 JUMPI PUSH2 0x1137 PUSH2 0x510 JUMP JUMPDEST PUSH1 0x2 SLOAD PUSH2 0x1144 SWAP2 SWAP1 PUSH2 0x17C1 JUMP JUMPDEST PUSH2 0x114E SWAP1 DUP4 PUSH2 0x17E1 JUMP JUMPDEST SWAP1 POP PUSH2 0x1158 JUMP JUMPDEST POP DUP1 JUMPDEST PUSH2 0x7DB DUP4 DUP3 PUSH2 0x1406 JUMP JUMPDEST PUSH1 0x0 PUSH1 0x40 MLOAD PUSH4 0x23B872DD PUSH1 0xE0 SHL DUP2 MSTORE PUSH1 0x1 PUSH1 0x1 PUSH1 0xA0 SHL SUB DUP6 AND PUSH1 0x4 DUP3 ADD MSTORE PUSH1 0x1 PUSH1 0x1 PUSH1 0xA0 SHL SUB DUP5 AND PUSH1 0x24 DUP3 ADD MSTORE DUP3 PUSH1 0x44 DUP3 ADD MSTORE PUSH1 0x0 DUP1 PUSH1 0x64 DUP4 PUSH1 0x0 DUP11 GAS CALL SWAP2 POP POP PUSH2 0x11AC DUP2 PUSH2 0x13BF JUMP JUMPDEST PUSH2 0x11EF JUMPI PUSH1 0x40 MLOAD PUSH3 0x461BCD PUSH1 0xE5 SHL DUP2 MSTORE PUSH1 0x20 PUSH1 0x4 DUP3 ADD MSTORE PUSH1 0x14 PUSH1 0x24 DUP3 ADD MSTORE PUSH20 0x1514905394D1915497D19493D357D19052531151 PUSH1 0x62 SHL PUSH1 0x44 DUP3 ADD MSTORE PUSH1 0x64 ADD PUSH2 0x9EC JUMP JUMPDEST POP POP POP POP POP JUMP JUMPDEST PUSH1 0x7 SLOAD PUSH1 0x40 MLOAD PUSH4 0x70A08231 PUSH1 0xE0 SHL DUP2 MSTORE DUP3 SWAP2 PUSH1 0x1 PUSH1 0x1 PUSH1 0xA0 SHL SUB AND SWAP1 PUSH4 0x70A08231 SWAP1 PUSH2 0x1226 SWAP1 ADDRESS SWAP1 PUSH1 0x4 ADD PUSH2 0x16E5 JUMP JUMPDEST PUSH1 0x20 PUSH1 0x40 MLOAD DUP1 DUP4 SUB DUP2 DUP7 DUP1 EXTCODESIZE ISZERO DUP1 ISZERO PUSH2 0x123E JUMPI PUSH1 0x0 DUP1 REVERT JUMPDEST POP GAS STATICCALL ISZERO DUP1 ISZERO PUSH2 0x1252 JUMPI RETURNDATASIZE PUSH1 0x0 DUP1 RETURNDATACOPY RETURNDATASIZE PUSH1 0x0 REVERT JUMPDEST POP POP POP POP PUSH1 0x40 MLOAD RETURNDATASIZE PUSH1 0x1F NOT PUSH1 0x1F DUP3 ADD AND DUP3 ADD DUP1 PUSH1 0x40 MSTORE POP DUP2 ADD SWAP1 PUSH2 0x1276 SWAP2 SWAP1 PUSH2 0x15EC JUMP JUMPDEST LT ISZERO PUSH2 0x12BB JUMPI PUSH1 0x40 MLOAD PUSH3 0x461BCD PUSH1 0xE5 SHL DUP2 MSTORE PUSH1 0x20 PUSH1 0x4 DUP3 ADD MSTORE PUSH1 0x14 PUSH1 0x24 DUP3 ADD MSTORE PUSH20 0x696E73756666696369656E742062616C616E6365 PUSH1 0x60 SHL PUSH1 0x44 DUP3 ADD MSTORE PUSH1 0x64 ADD PUSH2 0x9EC JUMP JUMPDEST PUSH1 0xE SLOAD PUSH1 0x40 MLOAD PUSH4 0x534A7E1D PUSH1 0xE1 SHL DUP2 MSTORE PUSH1 0x4 DUP2 ADD DUP4 SWAP1 MSTORE PUSH2 0x100 SWAP1 SWAP2 DIV PUSH1 0x1 PUSH1 0x1 PUSH1 0xA0 SHL SUB AND SWAP1 PUSH4 0xA694FC3A SWAP1 PUSH1 0x24 ADD PUSH1 0x20 PUSH1 0x40 MLOAD DUP1 DUP4 SUB DUP2 PUSH1 0x0 DUP8 DUP1 EXTCODESIZE ISZERO DUP1 ISZERO PUSH2 0x1305 JUMPI PUSH1 0x0 DUP1 REVERT JUMPDEST POP GAS CALL ISZERO DUP1 ISZERO PUSH2 0x1319 JUMPI RETURNDATASIZE PUSH1 0x0 DUP1 RETURNDATACOPY RETURNDATASIZE PUSH1 0x0 REVERT JUMPDEST POP POP POP POP PUSH1 0x40 MLOAD RETURNDATASIZE PUSH1 0x1F NOT PUSH1 0x1F DUP3 ADD AND DUP3 ADD DUP1 PUSH1 0x40 MSTORE POP DUP2 ADD SWAP1 PUSH2 0x133D SWAP2 SWAP1 PUSH2 0x15B8 JUMP JUMPDEST PUSH2 0x1381 JUMPI PUSH1 0x40 MLOAD PUSH3 0x461BCD PUSH1 0xE5 SHL DUP2 MSTORE PUSH1 0x20 PUSH1 0x4 DUP3 ADD MSTORE PUSH1 0x15 PUSH1 0x24 DUP3 ADD MSTORE PUSH21 0x18DBDB9D995E081CDD185ADA5B99C819985A5B1959 PUSH1 0x5A SHL PUSH1 0x44 DUP3 ADD MSTORE PUSH1 0x64 ADD PUSH2 0x9EC JUMP JUMPDEST POP JUMP JUMPDEST PUSH1 0x0 DUP1 PUSH2 0x138F PUSH2 0x510 JUMP JUMPDEST SWAP1 POP DUP1 PUSH2 0x139F JUMPI POP PUSH1 0x0 SWAP3 SWAP2 POP POP JUMP JUMPDEST DUP1 PUSH1 0x2 SLOAD DUP5 PUSH2 0x13AE SWAP2 SWAP1 PUSH2 0x17E1 JUMP JUMPDEST PUSH2 0x13B8 SWAP2 SWAP1 PUSH2 0x17C1 JUMP JUMPDEST SWAP4 SWAP3 POP POP POP JUMP JUMPDEST PUSH1 0x0 RETURNDATASIZE DUP3 PUSH2 0x13D1 JUMPI DUP1 PUSH1 0x0 DUP1 RETURNDATACOPY DUP1 PUSH1 0x0 REVERT JUMPDEST DUP1 PUSH1 0x20 DUP2 EQ PUSH2 0x13E9 JUMPI DUP1 ISZERO PUSH2 0x13FA JUMPI PUSH1 0x0 SWAP3 POP PUSH2 0x13FF JUMP JUMPDEST DUP2 PUSH1 0x0 DUP1 RETURNDATACOPY PUSH1 0x0 MLOAD ISZERO ISZERO SWAP3 POP PUSH2 0x13FF JUMP JUMPDEST PUSH1 0x1 SWAP3 POP JUMPDEST POP POP SWAP2 SWAP1 POP JUMP JUMPDEST DUP1 PUSH1 0x2 PUSH1 0x0 DUP3 DUP3 SLOAD PUSH2 0x1418 SWAP2 SWAP1 PUSH2 0x17A9 JUMP JUMPDEST SWAP1 SWAP2 SSTORE POP POP PUSH1 0x1 PUSH1 0x1 PUSH1 0xA0 SHL SUB DUP3 AND PUSH1 0x0 DUP2 DUP2 MSTORE PUSH1 0x3 PUSH1 0x20 SWAP1 DUP2 MSTORE PUSH1 0x40 DUP1 DUP4 KECCAK256 DUP1 SLOAD DUP7 ADD SWAP1 SSTORE MLOAD DUP5 DUP2 MSTORE PUSH1 0x0 DUP1 MLOAD PUSH1 0x20 PUSH2 0x1877 DUP4 CODECOPY DUP2 MLOAD SWAP2 MSTORE SWAP2 ADD PUSH1 0x40 MLOAD DUP1 SWAP2 SUB SWAP1 LOG3 POP POP JUMP JUMPDEST DUP1 CALLDATALOAD PUSH1 0x1 PUSH1 0x1 PUSH1 0xA0 SHL SUB DUP2 AND DUP2 EQ PUSH2 0x1476 JUMPI PUSH1 0x0 DUP1 REVERT JUMPDEST SWAP2 SWAP1 POP JUMP JUMPDEST PUSH1 0x0 PUSH1 0x20 DUP3 DUP5 SUB SLT ISZERO PUSH2 0x148C JUMPI DUP1 DUP2 REVERT JUMPDEST PUSH2 0x13B8 DUP3 PUSH2 0x145F JUMP JUMPDEST PUSH1 0x0 DUP1 PUSH1 0x40 DUP4 DUP6 SUB SLT ISZERO PUSH2 0x14A7 JUMPI DUP1 DUP2 REVERT JUMPDEST PUSH2 0x14B0 DUP4 PUSH2 0x145F JUMP JUMPDEST SWAP2 POP PUSH2 0x14BE PUSH1 0x20 DUP5 ADD PUSH2 0x145F JUMP JUMPDEST SWAP1 POP SWAP3 POP SWAP3 SWAP1 POP JUMP JUMPDEST PUSH1 0x0 DUP1 PUSH1 0x0 PUSH1 0x60 DUP5 DUP7 SUB SLT ISZERO PUSH2 0x14DB JUMPI DUP1 DUP2 REVERT JUMPDEST PUSH2 0x14E4 DUP5 PUSH2 0x145F JUMP JUMPDEST SWAP3 POP PUSH2 0x14F2 PUSH1 0x20 DUP6 ADD PUSH2 0x145F JUMP JUMPDEST SWAP2 POP PUSH1 0x40 DUP5 ADD CALLDATALOAD SWAP1 POP SWAP3 POP SWAP3 POP SWAP3 JUMP JUMPDEST PUSH1 0x0 DUP1 PUSH1 0x0 DUP1 PUSH1 0x0 DUP1 PUSH1 0x0 PUSH1 0xE0 DUP9 DUP11 SUB SLT ISZERO PUSH2 0x151C JUMPI DUP3 DUP4 REVERT JUMPDEST PUSH2 0x1525 DUP9 PUSH2 0x145F JUMP JUMPDEST SWAP7 POP PUSH2 0x1533 PUSH1 0x20 DUP10 ADD PUSH2 0x145F JUMP JUMPDEST SWAP6 POP PUSH1 0x40 DUP9 ADD CALLDATALOAD SWAP5 POP PUSH1 0x60 DUP9 ADD CALLDATALOAD SWAP4 POP PUSH1 0x80 DUP9 ADD CALLDATALOAD PUSH1 0xFF DUP2 AND DUP2 EQ PUSH2 0x1556 JUMPI DUP4 DUP5 REVERT JUMPDEST SWAP7 SWAP10 SWAP6 SWAP9 POP SWAP4 SWAP7 SWAP3 SWAP6 SWAP5 PUSH1 0xA0 DUP5 ADD CALLDATALOAD SWAP5 POP PUSH1 0xC0 SWAP1 SWAP4 ADD CALLDATALOAD SWAP3 SWAP2 POP POP JUMP JUMPDEST PUSH1 0x0 DUP1 PUSH1 0x40 DUP4 DUP6 SUB SLT ISZERO PUSH2 0x1585 JUMPI DUP2 DUP3 REVERT JUMPDEST PUSH2 0x158E DUP4 PUSH2 0x145F JUMP JUMPDEST SWAP5 PUSH1 0x20 SWAP4 SWAP1 SWAP4 ADD CALLDATALOAD SWAP4 POP POP POP JUMP JUMPDEST PUSH1 0x0 PUSH1 0x20 DUP3 DUP5 SUB SLT ISZERO PUSH2 0x15AD JUMPI DUP1 DUP2 REVERT JUMPDEST DUP2 CALLDATALOAD PUSH2 0x13B8 DUP2 PUSH2 0x1868 JUMP JUMPDEST PUSH1 0x0 PUSH1 0x20 DUP3 DUP5 SUB SLT ISZERO PUSH2 0x15C9 JUMPI DUP1 DUP2 REVERT JUMPDEST DUP2 MLOAD PUSH2 0x13B8 DUP2 PUSH2 0x1868 JUMP JUMPDEST PUSH1 0x0 PUSH1 0x20 DUP3 DUP5 SUB SLT ISZERO PUSH2 0x15E5 JUMPI DUP1 DUP2 REVERT JUMPDEST POP CALLDATALOAD SWAP2 SWAP1 POP JUMP JUMPDEST PUSH1 0x0 PUSH1 0x20 DUP3 DUP5 SUB SLT ISZERO PUSH2 0x15FD JUMPI DUP1 DUP2 REVERT JUMPDEST POP MLOAD SWAP2 SWAP1 POP JUMP JUMPDEST PUSH1 0x0 DUP1 PUSH1 0x40 DUP4 DUP6 SUB SLT ISZERO PUSH2 0x1616 JUMPI DUP2 DUP3 REVERT JUMPDEST DUP3 CALLDATALOAD SWAP2 POP PUSH2 0x14BE PUSH1 0x20 DUP5 ADD PUSH2 0x145F JUMP JUMPDEST PUSH1 0x0 DUP1 PUSH1 0x0 PUSH1 0x60 DUP5 DUP7 SUB SLT ISZERO PUSH2 0x163A JUMPI DUP3 DUP4 REVERT JUMPDEST DUP4 CALLDATALOAD SWAP3 POP PUSH2 0x14F2 PUSH1 0x20 DUP6 ADD PUSH2 0x145F JUMP JUMPDEST PUSH1 0x0 DUP1 DUP4 SLOAD DUP3 PUSH1 0x1 DUP3 DUP2 SHR SWAP2 POP DUP1 DUP4 AND DUP1 PUSH2 0x1666 JUMPI PUSH1 0x7F DUP4 AND SWAP3 POP JUMPDEST PUSH1 0x20 DUP1 DUP5 LT DUP3 EQ ISZERO PUSH2 0x1686 JUMPI PUSH4 0x4E487B71 PUSH1 0xE0 SHL DUP8 MSTORE PUSH1 0x22 PUSH1 0x4 MSTORE PUSH1 0x24 DUP8 REVERT JUMPDEST DUP2 DUP1 ISZERO PUSH2 0x169A JUMPI PUSH1 0x1 DUP2 EQ PUSH2 0x16AB JUMPI PUSH2 0x16D7 JUMP JUMPDEST PUSH1 0xFF NOT DUP7 AND DUP10 MSTORE DUP5 DUP10 ADD SWAP7 POP PUSH2 0x16D7 JUMP JUMPDEST PUSH1 0x0 DUP11 DUP2 MSTORE PUSH1 0x20 SWAP1 KECCAK256 DUP9 JUMPDEST DUP7 DUP2 LT ISZERO PUSH2 0x16CF JUMPI DUP2 SLOAD DUP12 DUP3 ADD MSTORE SWAP1 DUP6 ADD SWAP1 DUP4 ADD PUSH2 0x16B6 JUMP JUMPDEST POP POP DUP5 DUP10 ADD SWAP7 POP JUMPDEST POP SWAP5 SWAP9 SWAP8 POP POP POP POP POP POP POP POP JUMP JUMPDEST PUSH1 0x1 PUSH1 0x1 PUSH1 0xA0 SHL SUB SWAP2 SWAP1 SWAP2 AND DUP2 MSTORE PUSH1 0x20 ADD SWAP1 JUMP JUMPDEST PUSH1 0x0 PUSH1 0x20 DUP1 DUP4 MSTORE DUP4 MLOAD DUP1 DUP3 DUP6 ADD MSTORE DUP3 JUMPDEST DUP2 DUP2 LT ISZERO PUSH2 0x1725 JUMPI DUP6 DUP2 ADD DUP4 ADD MLOAD DUP6 DUP3 ADD PUSH1 0x40 ADD MSTORE DUP3 ADD PUSH2 0x1709 JUMP JUMPDEST DUP2 DUP2 GT ISZERO PUSH2 0x1736 JUMPI DUP4 PUSH1 0x40 DUP4 DUP8 ADD ADD MSTORE JUMPDEST POP PUSH1 0x1F ADD PUSH1 0x1F NOT AND SWAP3 SWAP1 SWAP3 ADD PUSH1 0x40 ADD SWAP4 SWAP3 POP POP POP JUMP JUMPDEST PUSH1 0x20 DUP1 DUP3 MSTORE PUSH1 0xC SWAP1 DUP3 ADD MSTORE PUSH12 0xCCCACA40E8DEDE40D0D2CED PUSH1 0xA3 SHL PUSH1 0x40 DUP3 ADD MSTORE PUSH1 0x60 ADD SWAP1 JUMP JUMPDEST PUSH1 0x20 DUP1 DUP3 MSTORE PUSH1 0x1F SWAP1 DUP3 ADD MSTORE PUSH32 0x5265656E7472616E637947756172643A207265656E7472616E742063616C6C00 PUSH1 0x40 DUP3 ADD MSTORE PUSH1 0x60 ADD SWAP1 JUMP JUMPDEST PUSH1 0x0 DUP3 NOT DUP3 GT ISZERO PUSH2 0x17BC JUMPI PUSH2 0x17BC PUSH2 0x1852 JUMP JUMPDEST POP ADD SWAP1 JUMP JUMPDEST PUSH1 0x0 DUP3 PUSH2 0x17DC JUMPI PUSH4 0x4E487B71 PUSH1 0xE0 SHL DUP2 MSTORE PUSH1 0x12 PUSH1 0x4 MSTORE PUSH1 0x24 DUP2 REVERT JUMPDEST POP DIV SWAP1 JUMP JUMPDEST PUSH1 0x0 DUP2 PUSH1 0x0 NOT DIV DUP4 GT DUP3 ISZERO ISZERO AND ISZERO PUSH2 0x17FB JUMPI PUSH2 0x17FB PUSH2 0x1852 JUMP JUMPDEST POP MUL SWAP1 JUMP JUMPDEST PUSH1 0x0 DUP3 DUP3 LT ISZERO PUSH2 0x1812 JUMPI PUSH2 0x1812 PUSH2 0x1852 JUMP JUMPDEST POP SUB SWAP1 JUMP JUMPDEST PUSH1 0x1 DUP2 DUP2 SHR SWAP1 DUP3 AND DUP1 PUSH2 0x182B JUMPI PUSH1 0x7F DUP3 AND SWAP2 POP JUMPDEST PUSH1 0x20 DUP3 LT DUP2 EQ ISZERO PUSH2 0x184C JUMPI PUSH4 0x4E487B71 PUSH1 0xE0 SHL PUSH1 0x0 MSTORE PUSH1 0x22 PUSH1 0x4 MSTORE PUSH1 0x24 PUSH1 0x0 REVERT JUMPDEST POP SWAP2 SWAP1 POP JUMP JUMPDEST PUSH4 0x4E487B71 PUSH1 0xE0 SHL PUSH1 0x0 MSTORE PUSH1 0x11 PUSH1 0x4 MSTORE PUSH1 0x24 PUSH1 0x0 REVERT JUMPDEST DUP1 ISZERO ISZERO DUP2 EQ PUSH2 0x1381 JUMPI PUSH1 0x0 DUP1 REVERT INVALID 0xDD CALLCODE MSTORE 0xAD SHL 0xE2 0xC8 SWAP12 PUSH10 0xC2B068FC378DAA952BA7 CALL PUSH4 0xC4A11628 CREATE2 GAS 0x4D CREATE2 0x23 0xB3 0xEF LOG2 PUSH5 0x6970667358 0x22 SLT KECCAK256 0xAA 0xFC 0xA8 BALANCE LOG4 EXTCODEHASH 0xAA EXTCODEHASH PUSH22 0xD6850950C67F2B79A70564C25AE6452A603D82E41DDC 0xD0 PUSH5 0x736F6C6343 STOP ADDMOD DIV STOP CALLER "
        },
        "methodIdentifiers": {
          "API_VERSION()": "77e3b267",
          "DOMAIN_SEPARATOR()": "3644e515",
          "MAX_BPS()": "fd967f47",
          "PERMIT_TYPEHASH()": "30adf81f",
          "acceptGovernance()": "238efcbc",
          "allowance(address,address)": "dd62ed3e",
          "apiVersion()": "25829410",
          "approve(address,uint256)": "095ea7b3",
          "balanceOf(address)": "70a08231",
          "baseRewardPool()": "475a91d1",
          "batcher()": "025a3a29",
          "decimals()": "313ce567",
          "deposit(uint256,address)": "6e553f65",
          "depositLimit()": "ecf70858",
          "emergencyShutdown()": "3403c2fc",
          "governance()": "5aa6e675",
          "managementFee()": "a6f7f5d6",
          "maxAvailableShares()": "75de2902",
          "name()": "06fdde03",
          "nonces(address)": "7ecebe00",
          "pendingGovernance()": "f39c38a0",
          "performanceFee()": "87788782",
          "permit(address,address,uint256,uint256,uint8,bytes32,bytes32)": "d505accf",
          "setBatcher(address)": "058a8e5f",
          "setDepositLimit(uint256)": "bdc8144b",
          "setEmergencyShutdown(bool)": "14c64402",
          "setGovernance(address)": "ab033ea9",
          "setManagementFee(uint256)": "fe56e232",
          "setPerformanceFee(uint256)": "70897b23",
          "symbol()": "95d89b41",
          "token()": "fc0c546a",
          "totalAssets()": "01e1d114",
          "totalSupply()": "18160ddd",
          "transfer(address,uint256)": "a9059cbb",
          "transferFrom(address,address,uint256)": "23b872dd",
          "ust3Pool()": "1f1fa133",
          "withdraw(uint256,address,uint256)": "e63697c8"
        }
      }
    }
  }
}