{
  "_format": "hh-sol-artifact-1",
  "contractName": "Vault",
  "sourceName": "contracts/Vault.sol",
  "abi": [
    {
      "inputs": [
        {
          "internalType": "uint256",
          "name": "_depositLimit",
          "type": "uint256"
        },
        {
          "internalType": "address",
          "name": "_token",
          "type": "address"
        },
        {
          "internalType": "address",
          "name": "_governance",
          "type": "address"
        },
        {
          "internalType": "address",
          "name": "_batcher",
          "type": "address"
        },
        {
          "internalType": "address",
          "name": "_baseRewardPool",
          "type": "address"
        },
        {
          "internalType": "address",
          "name": "_ust3Pool",
          "type": "address"
        },
        {
          "internalType": "string",
          "name": "_name",
          "type": "string"
        },
        {
          "internalType": "string",
          "name": "_symbol",
          "type": "string"
        },
        {
          "internalType": "uint8",
          "name": "_decimal",
          "type": "uint8"
        }
      ],
      "stateMutability": "nonpayable",
      "type": "constructor"
    },
    {
      "anonymous": false,
      "inputs": [
        {
          "indexed": true,
          "internalType": "address",
          "name": "owner",
          "type": "address"
        },
        {
          "indexed": true,
          "internalType": "address",
          "name": "spender",
          "type": "address"
        },
        {
          "indexed": false,
          "internalType": "uint256",
          "name": "amount",
          "type": "uint256"
        }
      ],
      "name": "Approval",
      "type": "event"
    },
    {
      "anonymous": false,
      "inputs": [
        {
          "indexed": false,
          "internalType": "bool",
          "name": "active",
          "type": "bool"
        }
      ],
      "name": "EmergencyShutdown",
      "type": "event"
    },
    {
      "anonymous": false,
      "inputs": [
        {
          "indexed": true,
          "internalType": "address",
          "name": "from",
          "type": "address"
        },
        {
          "indexed": true,
          "internalType": "address",
          "name": "to",
          "type": "address"
        },
        {
          "indexed": false,
          "internalType": "uint256",
          "name": "amount",
          "type": "uint256"
        }
      ],
      "name": "Transfer",
      "type": "event"
    },
    {
      "anonymous": false,
      "inputs": [
        {
          "indexed": false,
          "internalType": "uint256",
          "name": "depositLimit",
          "type": "uint256"
        }
      ],
      "name": "UpdateDepositLimit",
      "type": "event"
    },
    {
      "anonymous": false,
      "inputs": [
        {
          "indexed": false,
          "internalType": "address",
          "name": "governance",
          "type": "address"
        }
      ],
      "name": "UpdateGovernance",
      "type": "event"
    },
    {
      "anonymous": false,
      "inputs": [
        {
          "indexed": false,
          "internalType": "uint256",
          "name": "managementFee",
          "type": "uint256"
        }
      ],
      "name": "UpdateManagementFee",
      "type": "event"
    },
    {
      "anonymous": false,
      "inputs": [
        {
          "indexed": false,
          "internalType": "uint256",
          "name": "performanceFee",
          "type": "uint256"
        }
      ],
      "name": "UpdatePerformanceFee",
      "type": "event"
    },
    {
      "inputs": [],
      "name": "API_VERSION",
      "outputs": [
        {
          "internalType": "string",
          "name": "",
          "type": "string"
        }
      ],
      "stateMutability": "view",
      "type": "function"
    },
    {
      "inputs": [],
      "name": "DOMAIN_SEPARATOR",
      "outputs": [
        {
          "internalType": "bytes32",
          "name": "",
          "type": "bytes32"
        }
      ],
      "stateMutability": "view",
      "type": "function"
    },
    {
      "inputs": [],
      "name": "MAX_BPS",
      "outputs": [
        {
          "internalType": "uint256",
          "name": "",
          "type": "uint256"
        }
      ],
      "stateMutability": "view",
      "type": "function"
    },
    {
      "inputs": [],
      "name": "PERMIT_TYPEHASH",
      "outputs": [
        {
          "internalType": "bytes32",
          "name": "",
          "type": "bytes32"
        }
      ],
      "stateMutability": "view",
      "type": "function"
    },
    {
      "inputs": [],
      "name": "acceptGovernance",
      "outputs": [],
      "stateMutability": "nonpayable",
      "type": "function"
    },
    {
      "inputs": [
        {
          "internalType": "address",
          "name": "",
          "type": "address"
        },
        {
          "internalType": "address",
          "name": "",
          "type": "address"
        }
      ],
      "name": "allowance",
      "outputs": [
        {
          "internalType": "uint256",
          "name": "",
          "type": "uint256"
        }
      ],
      "stateMutability": "view",
      "type": "function"
    },
    {
      "inputs": [],
      "name": "apiVersion",
      "outputs": [
        {
          "internalType": "string",
          "name": "",
          "type": "string"
        }
      ],
      "stateMutability": "pure",
      "type": "function"
    },
    {
      "inputs": [
        {
          "internalType": "address",
          "name": "spender",
          "type": "address"
        },
        {
          "internalType": "uint256",
          "name": "amount",
          "type": "uint256"
        }
      ],
      "name": "approve",
      "outputs": [
        {
          "internalType": "bool",
          "name": "",
          "type": "bool"
        }
      ],
      "stateMutability": "nonpayable",
      "type": "function"
    },
    {
      "inputs": [
        {
          "internalType": "address",
          "name": "",
          "type": "address"
        }
      ],
      "name": "balanceOf",
      "outputs": [
        {
          "internalType": "uint256",
          "name": "",
          "type": "uint256"
        }
      ],
      "stateMutability": "view",
      "type": "function"
    },
    {
      "inputs": [],
      "name": "baseRewardPool",
      "outputs": [
        {
          "internalType": "contract IConvexRewards",
          "name": "",
          "type": "address"
        }
      ],
      "stateMutability": "view",
      "type": "function"
    },
    {
      "inputs": [],
      "name": "batcher",
      "outputs": [
        {
          "internalType": "address",
          "name": "",
          "type": "address"
        }
      ],
      "stateMutability": "view",
      "type": "function"
    },
    {
      "inputs": [],
      "name": "decimals",
      "outputs": [
        {
          "internalType": "uint8",
          "name": "",
          "type": "uint8"
        }
      ],
      "stateMutability": "view",
      "type": "function"
    },
    {
      "inputs": [
        {
          "internalType": "uint256",
          "name": "_amount",
          "type": "uint256"
        },
        {
          "internalType": "address",
          "name": "recepient",
          "type": "address"
        }
      ],
      "name": "deposit",
      "outputs": [
        {
          "internalType": "uint256",
          "name": "sharesOut",
          "type": "uint256"
        }
      ],
      "stateMutability": "nonpayable",
      "type": "function"
    },
    {
      "inputs": [],
      "name": "depositLimit",
      "outputs": [
        {
          "internalType": "uint256",
          "name": "",
          "type": "uint256"
        }
      ],
      "stateMutability": "view",
      "type": "function"
    },
    {
      "inputs": [],
      "name": "emergencyShutdown",
      "outputs": [
        {
          "internalType": "bool",
          "name": "",
          "type": "bool"
        }
      ],
      "stateMutability": "view",
      "type": "function"
    },
    {
      "inputs": [],
      "name": "governance",
      "outputs": [
        {
          "internalType": "address",
          "name": "",
          "type": "address"
        }
      ],
      "stateMutability": "view",
      "type": "function"
    },
    {
      "inputs": [],
      "name": "managementFee",
      "outputs": [
        {
          "internalType": "uint256",
          "name": "",
          "type": "uint256"
        }
      ],
      "stateMutability": "view",
      "type": "function"
    },
    {
      "inputs": [],
      "name": "maxAvailableShares",
      "outputs": [
        {
          "internalType": "uint256",
          "name": "_maxAvailableShares",
          "type": "uint256"
        }
      ],
      "stateMutability": "view",
      "type": "function"
    },
    {
      "inputs": [],
      "name": "name",
      "outputs": [
        {
          "internalType": "string",
          "name": "",
          "type": "string"
        }
      ],
      "stateMutability": "view",
      "type": "function"
    },
    {
      "inputs": [
        {
          "internalType": "address",
          "name": "",
          "type": "address"
        }
      ],
      "name": "nonces",
      "outputs": [
        {
          "internalType": "uint256",
          "name": "",
          "type": "uint256"
        }
      ],
      "stateMutability": "view",
      "type": "function"
    },
    {
      "inputs": [],
      "name": "pendingGovernance",
      "outputs": [
        {
          "internalType": "address",
          "name": "",
          "type": "address"
        }
      ],
      "stateMutability": "view",
      "type": "function"
    },
    {
      "inputs": [],
      "name": "performanceFee",
      "outputs": [
        {
          "internalType": "uint256",
          "name": "",
          "type": "uint256"
        }
      ],
      "stateMutability": "view",
      "type": "function"
    },
    {
      "inputs": [
        {
          "internalType": "address",
          "name": "owner",
          "type": "address"
        },
        {
          "internalType": "address",
          "name": "spender",
          "type": "address"
        },
        {
          "internalType": "uint256",
          "name": "value",
          "type": "uint256"
        },
        {
          "internalType": "uint256",
          "name": "deadline",
          "type": "uint256"
        },
        {
          "internalType": "uint8",
          "name": "v",
          "type": "uint8"
        },
        {
          "internalType": "bytes32",
          "name": "r",
          "type": "bytes32"
        },
        {
          "internalType": "bytes32",
          "name": "s",
          "type": "bytes32"
        }
      ],
      "name": "permit",
      "outputs": [],
      "stateMutability": "nonpayable",
      "type": "function"
    },
    {
      "inputs": [
        {
          "internalType": "address",
          "name": "_batcher",
          "type": "address"
        }
      ],
      "name": "setBatcher",
      "outputs": [],
      "stateMutability": "nonpayable",
      "type": "function"
    },
    {
      "inputs": [
        {
          "internalType": "uint256",
          "name": "_depositLimit",
          "type": "uint256"
        }
      ],
      "name": "setDepositLimit",
      "outputs": [],
      "stateMutability": "nonpayable",
      "type": "function"
    },
    {
      "inputs": [
        {
          "internalType": "bool",
          "name": "_active",
          "type": "bool"
        }
      ],
      "name": "setEmergencyShutdown",
      "outputs": [],
      "stateMutability": "nonpayable",
      "type": "function"
    },
    {
      "inputs": [
        {
          "internalType": "address",
          "name": "_governance",
          "type": "address"
        }
      ],
      "name": "setGovernance",
      "outputs": [],
      "stateMutability": "nonpayable",
      "type": "function"
    },
    {
      "inputs": [
        {
          "internalType": "uint256",
          "name": "_managementFee",
          "type": "uint256"
        }
      ],
      "name": "setManagementFee",
      "outputs": [],
      "stateMutability": "nonpayable",
      "type": "function"
    },
    {
      "inputs": [
        {
          "internalType": "uint256",
          "name": "_performanceFee",
          "type": "uint256"
        }
      ],
      "name": "setPerformanceFee",
      "outputs": [],
      "stateMutability": "nonpayable",
      "type": "function"
    },
    {
      "inputs": [],
      "name": "symbol",
      "outputs": [
        {
          "internalType": "string",
          "name": "",
          "type": "string"
        }
      ],
      "stateMutability": "view",
      "type": "function"
    },
    {
      "inputs": [],
      "name": "token",
      "outputs": [
        {
          "internalType": "contract ERC20",
          "name": "",
          "type": "address"
        }
      ],
      "stateMutability": "view",
      "type": "function"
    },
    {
      "inputs": [],
      "name": "totalAssets",
      "outputs": [
        {
          "internalType": "uint256",
          "name": "",
          "type": "uint256"
        }
      ],
      "stateMutability": "view",
      "type": "function"
    },
    {
      "inputs": [],
      "name": "totalSupply",
      "outputs": [
        {
          "internalType": "uint256",
          "name": "",
          "type": "uint256"
        }
      ],
      "stateMutability": "view",
      "type": "function"
    },
    {
      "inputs": [
        {
          "internalType": "address",
          "name": "to",
          "type": "address"
        },
        {
          "internalType": "uint256",
          "name": "amount",
          "type": "uint256"
        }
      ],
      "name": "transfer",
      "outputs": [
        {
          "internalType": "bool",
          "name": "",
          "type": "bool"
        }
      ],
      "stateMutability": "nonpayable",
      "type": "function"
    },
    {
      "inputs": [
        {
          "internalType": "address",
          "name": "from",
          "type": "address"
        },
        {
          "internalType": "address",
          "name": "to",
          "type": "address"
        },
        {
          "internalType": "uint256",
          "name": "amount",
          "type": "uint256"
        }
      ],
      "name": "transferFrom",
      "outputs": [
        {
          "internalType": "bool",
          "name": "",
          "type": "bool"
        }
      ],
      "stateMutability": "nonpayable",
      "type": "function"
    },
    {
      "inputs": [],
      "name": "ust3Pool",
      "outputs": [
        {
          "internalType": "contract ICurvePool",
          "name": "",
          "type": "address"
        }
      ],
      "stateMutability": "view",
      "type": "function"
    },
    {
      "inputs": [
        {
          "internalType": "uint256",
          "name": "maxShares",
          "type": "uint256"
        },
        {
          "internalType": "address",
          "name": "recepient",
          "type": "address"
        },
        {
          "internalType": "uint256",
          "name": "maxLoss",
          "type": "uint256"
        }
      ],
      "name": "withdraw",
      "outputs": [
        {
          "internalType": "uint256",
          "name": "",
          "type": "uint256"
        }
      ],
      "stateMutability": "nonpayable",
      "type": "function"
    }
  ],
  "bytecode": "0x60e0604052600e805460ff191690553480156200001b57600080fd5b506040516200201d3803806200201d8339810160408190526200003e916200053e565b828282826000908051906020019062000059929190620003c8565b5081516200006f906001906020850190620003c8565b507fff0000000000000000000000000000000000000000000000000000000000000060f882901b166080524660a052620000a8620000d2565b60c0525050600160065550620000c38989898989896200016e565b5050505050505050506200071e565b60007f8b73c3c69bb8fe3d512ecc4cf759cc79239f7b179b0ffacaa9a75d522b39400f600060405162000106919062000628565b6040805191829003822060208301939093528101919091527fc89efdaa54c0f20c7adf612882df0950f5a951637e0307cdcb4c672f298b8bc660608201524660808201523060a082015260c00160405160208183030381529060405280519060200120905090565b600b869055600780546001600160a01b03199081166001600160a01b03888116918217909355600e8054610100600160a81b03191661010087861602179055600f80548316858516179055600880548316888516179055600a80549092169286169290921790556000600d819055600c55620001fa9083600019620002f6602090811b62000eed17901c565b6008546040516001600160a01b0390911681527f8d55d160c0009eb3d739442df0a3ca089ed64378bfac017e7ddad463f9815b879060200160405180910390a17f0810a1c261ca2c0cd86a0152c51c43ba9dc329639d2349f98140891b2ea798eb600d546040516200026e91815260200190565b60405180910390a17f7a7883b0074f96e2c7fab65eb25abf624c488761a5db889e3bb84855dcc6daaf600c54604051620002aa91815260200190565b60405180910390a17fae565aab888bca5e19e25a13db7b0c9144305bf55cb0f3f4d724f730e5acdd62600b54604051620002e691815260200190565b60405180910390a1505050505050565b600060405163095ea7b360e01b81526001600160a01b03841660048201528260248201526000806044836000895af19150620003349050816200037c565b620003765760405162461bcd60e51b815260206004820152600e60248201526d1054141493d59157d1905253115160921b604482015260640160405180910390fd5b50505050565b60003d826200038f57806000803e806000fd5b8060208114620003aa578015620003bc5760009250620003c1565b816000803e60005115159250620003c1565b600192505b5050919050565b828054620003d690620006cb565b90600052602060002090601f016020900481019282620003fa576000855562000445565b82601f106200041557805160ff191683800117855562000445565b8280016001018555821562000445579182015b828111156200044557825182559160200191906001019062000428565b506200045392915062000457565b5090565b5b8082111562000453576000815560010162000458565b80516001600160a01b03811681146200048657600080fd5b919050565b600082601f8301126200049c578081fd5b81516001600160401b0380821115620004b957620004b962000708565b604051601f8301601f19908116603f01168101908282118183101715620004e457620004e462000708565b8160405283815260209250868385880101111562000500578485fd5b8491505b8382101562000523578582018301518183018401529082019062000504565b838211156200053457848385830101525b9695505050505050565b60008060008060008060008060006101208a8c0312156200055d578485fd5b895198506200056f60208b016200046e565b97506200057f60408b016200046e565b96506200058f60608b016200046e565b95506200059f60808b016200046e565b9450620005af60a08b016200046e565b60c08b01519094506001600160401b0380821115620005cc578485fd5b620005da8d838e016200048b565b945060e08c0151915080821115620005f0578384fd5b50620005ff8c828d016200048b565b9250506101008a015160ff8116811462000617578182fd5b809150509295985092959850929598565b600080835482600182811c9150808316806200064557607f831692505b60208084108214156200066657634e487b7160e01b87526022600452602487fd5b8180156200067d57600181146200068f57620006bd565b60ff19861689528489019650620006bd565b60008a815260209020885b86811015620006b55781548b8201529085019083016200069a565b505084890196505b509498975050505050505050565b600181811c90821680620006e057607f821691505b602082108114156200070257634e487b7160e01b600052602260045260246000fd5b50919050565b634e487b7160e01b600052604160045260246000fd5b60805160f81c60a05160c0516118cc6200075160003960006109a5015260006109700152600061031b01526118cc6000f3fe608060405234801561001057600080fd5b50600436106101f75760003560e01c806370897b2311610120578063ab033ea9116100b8578063ecf708581161007c578063ecf70858146104c5578063f39c38a0146104ce578063fc0c546a146104e1578063fd967f47146104f4578063fe56e232146104fd57600080fd5b8063ab033ea91461044e578063bdc8144b14610461578063d505accf14610474578063dd62ed3e14610487578063e63697c8146104b257600080fd5b806370897b23146103a257806370a08231146103b557806375de2902146103d557806377e3b267146103dd5780637ecebe0014610401578063877887821461042157806395d89b411461042a578063a6f7f5d614610432578063a9059cbb1461043b57600080fd5b806323b872dd1161019357806323b872dd146102bb57806325829410146102ce57806330adf81f146102ef578063313ce567146103165780633403c2fc1461034f5780633644e5151461035c578063475a91d1146103645780635aa6e6751461037c5780636e553f651461038f57600080fd5b806301e1d114146101fc578063025a3a2914610217578063058a8e5f1461023757806306fdde031461024c578063095ea7b31461026157806314c644021461028457806318160ddd146102975780631f1fa133146102a0578063238efcbc146102b3575b600080fd5b610204610510565b6040519081526020015b60405180910390f35b600a5461022a906001600160a01b031681565b60405161020e91906116e5565b61024a61024536600461147b565b6106bc565b005b6102546106e6565b60405161020e91906116f9565b61027461026f366004611573565b610774565b604051901515815260200161020e565b61024a61029236600461159c565b6107e1565b61020460025481565b600f5461022a906001600160a01b031681565b61024a610837565b6102746102c93660046114c7565b61088c565b6040805180820190915260058152640312e302e360dc1b6020820152610254565b6102047f6e71edae12b1b97f4d1f60370fef10105fa2faae0126114a169c64845d6126c981565b61033d7f000000000000000000000000000000000000000000000000000000000000000081565b60405160ff909116815260200161020e565b600e546102749060ff1681565b61020461096c565b600e5461022a9061010090046001600160a01b031681565b60085461022a906001600160a01b031681565b61020461039d366004611604565b6109c7565b61024a6103b03660046115d4565b610abd565b6102046103c336600461147b565b60036020526000908152604090205481565b610204610b26565b610254604051806040016040528060058152602001640312e302e360dc1b81525081565b61020461040f36600461147b565b60056020526000908152604090205481565b610204600d5481565b610254610b38565b610204600c5481565b610274610449366004611573565b610b45565b61024a61045c36600461147b565b610bab565b61024a61046f3660046115d4565b610bd5565b61024a610482366004611502565b610c12565b610204610495366004611495565b600460209081526000928352604080842090915290825290205481565b6102046104c0366004611626565b610e5d565b610204600b5481565b60095461022a906001600160a01b031681565b60075461022a906001600160a01b031681565b61020461271081565b61024a61050b3660046115d4565b610e8e565b600080600f60009054906101000a90046001600160a01b03166001600160a01b031663bb7b8b806040518163ffffffff1660e01b815260040160206040518083038186803b15801561056157600080fd5b505afa158015610575573d6000803e3d6000fd5b505050506040513d601f19601f8201168201806040525081019061059991906115ec565b600e546040516370a0823160e01b815291925082916101009091046001600160a01b0316906370a08231906105d29030906004016116e5565b60206040518083038186803b1580156105ea57600080fd5b505afa1580156105fe573d6000803e3d6000fd5b505050506040513d601f19601f8201168201806040525081019061062291906115ec565b61062c91906117e1565b6007546040516370a0823160e01b81526001600160a01b03909116906370a082319061065c9030906004016116e5565b60206040518083038186803b15801561067457600080fd5b505afa158015610688573d6000803e3d6000fd5b505050506040513d601f19601f820116820180604052508101906106ac91906115ec565b6106b691906117a9565b91505090565b6106c4610f6b565b600a80546001600160a01b0319166001600160a01b0392909216919091179055565b600080546106f390611817565b80601f016020809104026020016040519081016040528092919081815260200182805461071f90611817565b801561076c5780601f106107415761010080835404028352916020019161076c565b820191906000526020600020905b81548152906001019060200180831161074f57829003601f168201915b505050505081565b3360008181526004602090815260408083206001600160a01b038716808552925280832085905551919290917f8c5be1e5ebec7d5bd14f71427d1e84f3dd0314c0f7b2291e5b200ac8c7c3b925906107cf9086815260200190565b60405180910390a35060015b92915050565b80156107ef576107ef610f6b565b600e805460ff19168215159081179091556040519081527fba40372a3a724dca3c57156128ef1e896724b65b37a17f190b1ad5de68f3a4f3906020015b60405180910390a150565b61083f610fbe565b600880546001600160a01b031916339081179091556040517f8d55d160c0009eb3d739442df0a3ca089ed64378bfac017e7ddad463f9815b8791610882916116e5565b60405180910390a1565b6001600160a01b038316600090815260046020908152604080832033845290915281205460001981146108e8576108c38382611800565b6001600160a01b03861660009081526004602090815260408083203384529091529020555b6001600160a01b03851660009081526003602052604081208054859290610910908490611800565b90915550506001600160a01b0380851660008181526003602052604090819020805487019055519091871690600080516020611877833981519152906109599087815260200190565b60405180910390a3506001949350505050565b60007f000000000000000000000000000000000000000000000000000000000000000046146109a25761099d611018565b905090565b507f000000000000000000000000000000000000000000000000000000000000000090565b6000600260065414156109f55760405162461bcd60e51b81526004016109ec90611772565b60405180910390fd5b6002600655610a026110b2565b610a2f836040518060400160405280600b81526020016a1e995c9bc8185b5bdd5b9d60aa1b815250611100565b600b5483610a3b610510565b610a4591906117a9565b1115610a845760405162461bcd60e51b815260206004820152600e60248201526d195e18d95cdcc819195c1bdcda5d60921b60448201526064016109ec565b610a8e8284611124565b600754909150610aa9906001600160a01b0316333086611162565b610ab2836111f6565b600160065592915050565b610ac5610f6b565b610ad260026127106117c1565b811115610af15760405162461bcd60e51b81526004016109ec9061174c565b600d8190556040518181527f0810a1c261ca2c0cd86a0152c51c43ba9dc329639d2349f98140891b2ea798eb9060200161082c565b600061099d610b33610510565b611384565b600180546106f390611817565b33600090815260036020526040812080548391908390610b66908490611800565b90915550506001600160a01b03831660008181526003602052604090819020805485019055513390600080516020611877833981519152906107cf9086815260200190565b610bb3610f6b565b600980546001600160a01b0319166001600160a01b0392909216919091179055565b610bdd610f6b565b600b8190556040518181527fae565aab888bca5e19e25a13db7b0c9144305bf55cb0f3f4d724f730e5acdd629060200161082c565b42841015610c5c5760405162461bcd60e51b815260206004820152601760248201527614115493525517d11150511312539157d1561412549151604a1b60448201526064016109ec565b6000610c6661096c565b6001600160a01b0389811660008181526005602090815260409182902080546001810190915582517f6e71edae12b1b97f4d1f60370fef10105fa2faae0126114a169c64845d6126c98184015280840194909452938c166060840152608083018b905260a083019390935260c08083018a90528151808403909101815260e08301909152805192019190912061190160f01b6101008301526101028201929092526101228101919091526101420160408051601f198184030181528282528051602091820120600080855291840180845281905260ff88169284019290925260608301869052608083018590529092509060019060a0016020604051602081039080840390855afa158015610d7f573d6000803e3d6000fd5b5050604051601f1901519150506001600160a01b03811615801590610db55750886001600160a01b0316816001600160a01b0316145b610df25760405162461bcd60e51b815260206004820152600e60248201526d24a72b20a624a22fa9a4a3a722a960911b60448201526064016109ec565b6001600160a01b0390811660009081526004602090815260408083208b8516808552908352928190208a905551898152919350918a16917f8c5be1e5ebec7d5bd14f71427d1e84f3dd0314c0f7b2291e5b200ac8c7c3b925910160405180910390a350505050505050565b600060026006541415610e825760405162461bcd60e51b81526004016109ec90611772565b60016006559392505050565b610e96610f6b565b612710811115610eb85760405162461bcd60e51b81526004016109ec9061174c565b600c8190556040518181527f7a7883b0074f96e2c7fab65eb25abf624c488761a5db889e3bb84855dcc6daaf9060200161082c565b600060405163095ea7b360e01b81526001600160a01b03841660048201528260248201526000806044836000895af1915050610f28816113bf565b610f655760405162461bcd60e51b815260206004820152600e60248201526d1054141493d59157d1905253115160921b60448201526064016109ec565b50505050565b6008546001600160a01b03163314610fbc5760405162461bcd60e51b8152602060048201526014602482015273616363657373203a3a20476f7665726e616e636560601b60448201526064016109ec565b565b6009546001600160a01b03163314610fbc5760405162461bcd60e51b815260206004820152601b60248201527f616363657373203a3a2070656e64696e67476f7665726e616e6365000000000060448201526064016109ec565b60007f8b73c3c69bb8fe3d512ecc4cf759cc79239f7b179b0ffacaa9a75d522b39400f600060405161104a919061164a565b6040805191829003822060208301939093528101919091527fc89efdaa54c0f20c7adf612882df0950f5a951637e0307cdcb4c672f298b8bc660608201524660808201523060a082015260c00160405160208183030381529060405280519060200120905090565b600a546001600160a01b03163314610fbc5760405162461bcd60e51b815260206004820152601160248201527030b1b1b2b9b9901d1d102130ba31b432b960791b60448201526064016109ec565b808261111f5760405162461bcd60e51b81526004016109ec91906116f9565b505050565b6002546000901561115557611137610510565b60025461114491906117c1565b61114e90836117e1565b9050611158565b50805b6107db8382611406565b60006040516323b872dd60e01b81526001600160a01b03851660048201526001600160a01b038416602482015282604482015260008060648360008a5af19150506111ac816113bf565b6111ef5760405162461bcd60e51b81526020600482015260146024820152731514905394d1915497d19493d357d1905253115160621b60448201526064016109ec565b5050505050565b6007546040516370a0823160e01b815282916001600160a01b0316906370a08231906112269030906004016116e5565b60206040518083038186803b15801561123e57600080fd5b505afa158015611252573d6000803e3d6000fd5b505050506040513d601f19601f8201168201806040525081019061127691906115ec565b10156112bb5760405162461bcd60e51b8152602060048201526014602482015273696e73756666696369656e742062616c616e636560601b60448201526064016109ec565b600e5460405163534a7e1d60e11b8152600481018390526101009091046001600160a01b03169063a694fc3a90602401602060405180830381600087803b15801561130557600080fd5b505af1158015611319573d6000803e3d6000fd5b505050506040513d601f19601f8201168201806040525081019061133d91906115b8565b6113815760405162461bcd60e51b815260206004820152601560248201527418dbdb9d995e081cdd185ada5b99c819985a5b1959605a1b60448201526064016109ec565b50565b60008061138f610510565b90508061139f5750600092915050565b80600254846113ae91906117e1565b6113b891906117c1565b9392505050565b60003d826113d157806000803e806000fd5b80602081146113e95780156113fa57600092506113ff565b816000803e600051151592506113ff565b600192505b5050919050565b806002600082825461141891906117a9565b90915550506001600160a01b038216600081815260036020908152604080832080548601905551848152600080516020611877833981519152910160405180910390a35050565b80356001600160a01b038116811461147657600080fd5b919050565b60006020828403121561148c578081fd5b6113b88261145f565b600080604083850312156114a7578081fd5b6114b08361145f565b91506114be6020840161145f565b90509250929050565b6000806000606084860312156114db578081fd5b6114e48461145f565b92506114f26020850161145f565b9150604084013590509250925092565b600080600080600080600060e0888a03121561151c578283fd5b6115258861145f565b96506115336020890161145f565b95506040880135945060608801359350608088013560ff81168114611556578384fd5b9699959850939692959460a0840135945060c09093013592915050565b60008060408385031215611585578182fd5b61158e8361145f565b946020939093013593505050565b6000602082840312156115ad578081fd5b81356113b881611868565b6000602082840312156115c9578081fd5b81516113b881611868565b6000602082840312156115e5578081fd5b5035919050565b6000602082840312156115fd578081fd5b5051919050565b60008060408385031215611616578182fd5b823591506114be6020840161145f565b60008060006060848603121561163a578283fd5b833592506114f26020850161145f565b600080835482600182811c91508083168061166657607f831692505b602080841082141561168657634e487b7160e01b87526022600452602487fd5b81801561169a57600181146116ab576116d7565b60ff198616895284890196506116d7565b60008a815260209020885b868110156116cf5781548b8201529085019083016116b6565b505084890196505b509498975050505050505050565b6001600160a01b0391909116815260200190565b6000602080835283518082850152825b8181101561172557858101830151858201604001528201611709565b818111156117365783604083870101525b50601f01601f1916929092016040019392505050565b6020808252600c908201526b0cccaca40e8dede40d0d2ced60a31b604082015260600190565b6020808252601f908201527f5265656e7472616e637947756172643a207265656e7472616e742063616c6c00604082015260600190565b600082198211156117bc576117bc611852565b500190565b6000826117dc57634e487b7160e01b81526012600452602481fd5b500490565b60008160001904831182151516156117fb576117fb611852565b500290565b60008282101561181257611812611852565b500390565b600181811c9082168061182b57607f821691505b6020821081141561184c57634e487b7160e01b600052602260045260246000fd5b50919050565b634e487b7160e01b600052601160045260246000fd5b801515811461138157600080fdfeddf252ad1be2c89b69c2b068fc378daa952ba7f163c4a11628f55a4df523b3efa2646970667358221220aafca831a43faa3f75d6850950c67f2b79a70564c25ae6452a603d82e41ddcd064736f6c63430008040033",
  "linkReferences": {},
  "deployedLinkReferences": {}
}